S01300004430303033455F4C6162352E7372656322
S11300000C942E000C9471010C94E0010C944F029A
S11300100C94BE020C942D030C944B000C94DD093B
S11300200C944B000C948C090C949C030C940B04BE
S11300300C947A040C94E9040C9458050C94C705A8
S11300400C9436060C94A5060C9414070C948307A0
S11300500C94F2070C9461080C94D00811241FBE70
S1130060CFEFD4E0DEBFCDBF11E0A0E0B1E0E4ED1E
S1130070F5E102C005900D92AA31B107D9F724E049
S1130080AAE1B1E001C01D92AD36B207E1F70E94CA
S113009004010C94E80A0C940000CF93DF93CDB7CD
S11300A0DEB764970FB6F894DEBF0FBECDBF94E100
S11300B0E6E0F1E0DE01119601900D929A95E1F7E8
S11300C06630710580F5E82FF0E0F097EE0FFF1F22
S11300D081E090E08C0F9D1FE80FF91F2081318192
S11300E0FB01F595E795E451FF4FDB01A170BB27B8
S11300F060FF02C04FE001C040EFBF016C5E7F4F64
S1130100822F8F7094E0369527959A95E1F7109792
S113011011F08295807F90819423892B808335967A
S11301206E177F0769F764960FB6F894DEBF0FBEAB
S1130130CDBFDF91CF9108958F929F92AF92BF92DE
S1130140CF92DF92EF92FF92CF93DF934B015C014A
S1130150EA0124E630E040E050E00E94660A2AE02A
S1130160C22ED12CE12CF12CA70196010E94660A23
S1130170BE0180E3820F0E944D002196C501B401A7
S1130180A70196010E94660A862FBE01805DDF9159
S1130190CF91FF90EF90DF90CF90BF90AF909F9062
S11301A08F900C944D0080E88093E4008FE080935E
S11301B0E70087EB8093E50087E08093E60040E06A
S11301C050E060E070E0CB010E949C0042E050E00F
S11301D060E070E0CB010E949C0044E050E060E0ED
S11301E070E0CB010C949C0080EC8CBB8DBB08951B
S11301F01092C50083E38093C40088E98093C10012
S113020086E08093C20008950E94D3000E94F40007
S11302100E94F80081E68093C60080E090E0089593
S1130220CF93DF9300D0CDB7DEB79A8389838091D3
S113023000019091010106960E94A70A892B59F4A6
S113024089819A81909301018093000161E070E0BB
S113025006960E94C70A0F900F90DF91CF910895E0
S11302600F931F93CF93DF93C0912201D091230169
S1130270209791F18091040190910501009761F11B
S1130280E0910201F0910301A281B381109781F002
S11302904E815F816885798516960D911D912D910A
S11302A03C911997401B510B620B730B77FF14C0E1
S11302B0DC012D913C9111973093050120930401A9
S11302C0ED93FC939093030180930201DF91CF910E
S11302D01F910F910C941001DF91CF911F910F91F9
S11302E008951F920F920FB60F9211240F931F932C
S11302F02F933F934F935F936F937F938F939F932A
S1130300AF93BF93EF93FF9380911A0190911B01D8
S11303100091840010918500AC01092E000C660B3D
S1130320770BBA015527442720E030E0402B512BAE
S1130330622B732B40931C0150931D0160931E018B
S113034070931F01B09B1AC04091840050918500A6
S11303500196092E000CAA0BBB0BDC0199278827F8
S113036060E070E0842B952BA62BB72B80931C01A7
S113037090931D01A0931E01B0931F01E091BC0155
S1130380F091BD01309739F060E070E08091240174
S11303909091250109950E943001FF91EF91BF9141
S11303A0AF919F918F917F916F915F914F913F9109
S11303B02F911F910F910F900FBE0F901F901895C2
S11303C01F920F920FB60F9211240F931F932F9326
S11303D03F934F935F936F937F938F939F93AF93C9
S11303E0BF93EF93FF9380911A0190911B010091A9
S11303F0840010918500AC01092E000C660B770B6C
S1130400BA015527442720E030E0402B512B622BC2
S1130410732B40931C0150931D0160931E01709334
S11304201F01B09B1AC04091840050918500019631
S1130430092E000CAA0BBB0BDC019927882760E06E
S113044070E0842B952BA62BB72B80931C019093E3
S11304501D01A0931E01B0931F01E091BE01F09114
S1130460BF01309739F061E070E0809126019091EE
S1130470270109950E943001FF91EF91BF91AF913F
S11304809F918F917F916F915F914F913F912F91A8
S11304901F910F910F900FBE0F901F9018951F92F0
S11304A00F920FB60F9211240F931F932F933F9324
S11304B04F935F936F937F938F939F93AF93BF9368
S11304C0EF93FF9380911A0190911B010091840096
S11304D010918500AC01092E000C660B770BBA0154
S11304E05527442720E030E0402B512B622B732BFF
S11304F040931C0150931D0160931E0170931F01D2
S1130500B09B1AC040918400509185000196092E39
S1130510000CAA0BBB0BDC019927882760E070E074
S1130520842B952BA62BB72B80931C0190931D0134
S1130530A0931E01B0931F01E091C001F091C1018D
S1130540309739F062E070E08091280190912901A0
S113055009950E943001FF91EF91BF91AF919F9156
S11305608F917F916F915F914F913F912F911F9147
S11305700F910F900FBE0F901F9018951F920F921E
S11305800FB60F9211240F931F932F933F934F9302
S11305905F936F937F938F939F93AF93BF93EF93E7
S11305A0FF9380911A0190911B0100918400109196
S11305B08500AC01092E000C660B770BBA01552798
S11305C0442720E030E0402B512B622B732B4093C7
S11305D01C0150931D0160931E0170931F01B09B79
S11305E01AC040918400509185000196092E000C98
S11305F0AA0BBB0BDC019927882760E070E0842BF1
S1130600952BA62BB72B80931C0190931D01A093CF
S11306101E01B0931F01E091C201F091C301309714
S113062039F063E070E080912A0190912B010995E3
S11306300E943001FF91EF91BF91AF919F918F91F3
S11306407F916F915F914F913F912F911F910F91E6
S11306500F900FBE0F901F9018951F920F920FB618
S11306600F9211240F931F932F933F934F935F93F4
S11306706F937F938F939F93AF93BF93EF93FF9366
S113068080911A0190911B010091840010918500C2
S1130690AC01092E000C660B770BBA0155274427D1
S11306A020E030E0402B512B622B732B40931C0134
S11306B050931D0160931E0170931F01B09B1AC0DB
S11306C040918400509185000196092E000CAA0BDC
S11306D0BB0BDC019927882760E070E0842B952B05
S11306E0A62BB72B80931C0190931D01A0931E0190
S11306F0B0931F01E091C401F091C501309739F026
S113070064E070E080912C0190912D0109950E9484
S11307103001FF91EF91BF91AF919F918F917F91A4
S11307206F915F914F913F912F911F910F910F9076
S11307300FBE0F901F9018951F920F920FB60F9235
S113074011240F931F932F933F934F935F936F93B2
S11307507F938F939F93AF93BF93EF93FF93809176
S11307601A0190911B010091840010918500AC0145
S1130770092E000C660B770BBA015527442720E09D
S113078030E0402B512B622B732B40931C01509370
S11307901D0160931E0170931F01B09B1AC040910C
S11307A08400509185000196092E000CAA0BBB0B06
S11307B0DC019927882760E070E0842B952BA62B19
S11307C0B72B80931C0190931D01A0931E01B0933D
S11307D01F01E091C601F091C701309739F065E03F
S11307E070E080912E0190912F0109950E943001B3
S11307F0FF91EF91BF91AF919F918F917F916F91F5
S11308005F914F913F912F911F910F910F900FBEC8
S11308100F901F9018951F920F920FB60F921124EC
S11308200F931F932F933F934F935F936F937F93F4
S11308308F939F93AF93BF93EF93FF9380911A018C
S113084090911B010091840010918500AC01092E48
S1130850000C660B770BBA015527442720E030E0E3
S1130860402B512B622B732B40931C0150931D0181
S113087060931E0170931F01B09B1AC040918400C5
S1130880509185000196092E000CAA0BBB0BDC01CC
S11308909927882760E070E0842B952BA62BB72B33
S11308A080931C0190931D01A0931E01B0931F011E
S11308B0E091C801F091C901309739F066E070E029
S11308C0809130019091310109950E943001FF918E
S11308D0EF91BF91AF919F918F917F916F915F91B4
S11308E04F913F912F911F910F910F900FBE0F9039
S11308F01F9018951F920F920FB60F9211240F9309
S11309001F932F933F934F935F936F937F938F9393
S11309109F93AF93BF93EF93FF9380911A019091AC
S11309201B010091840010918500AC01092E000C7C
S1130930660B770BBA015527442720E030E0402BA3
S1130940512B622B732B40931C0150931D01609318
S11309501E0170931F01B09B1AC0409184005091F6
S113096085000196092E000CAA0BBB0BDC0199270C
S1130970882760E070E0842B952BA62BB72B8093FF
S11309801C0190931D01A0931E01B0931F01E091DF
S1130990CA01F091CB01309739F067E070E08091A3
S11309A032019091330109950E943001FF91EF913A
S11309B0BF91AF919F918F917F916F915F914F9173
S11309C03F912F911F910F910F900FBE0F901F9089
S11309D018951F920F920FB60F9211240F931F9325
S11309E02F933F934F935F936F937F938F939F9333
S11309F0AF93BF93EF93FF9380911A0190911B01E2
S1130A000091840010918500AC01092E000C660B46
S1130A10770BBA015527442720E030E0402B512BB7
S1130A20622B732B40931C0150931D0160931E0194
S1130A3070931F01B09B1AC04091840050918500AF
S1130A400196092E000CAA0BBB0BDC019927882701
S1130A5060E070E0842B952BA62BB72B80931C01B0
S1130A6090931D01A0931E01B0931F01E091CC014E
S1130A70F091CD01309739F068E070E08091340155
S1130A809091350109950E943001FF91EF91BF913A
S1130A90AF919F918F917F916F915F914F913F9112
S1130AA02F911F910F910F900FBE0F901F901895CB
S1130AB01F920F920FB60F9211240F931F932F932F
S1130AC03F934F935F936F937F938F939F93AF93D2
S1130AD0BF93EF93FF9380911A0190911B010091B2
S1130AE0840010918500AC01092E000C660B770B75
S1130AF0BA015527442720E030E0402B512B622BCC
S1130B00732B40931C0150931D0160931E0170933D
S1130B101F01B09B1AC0409184005091850001963A
S1130B20092E000CAA0BBB0BDC019927882760E077
S1130B3070E0842B952BA62BB72B80931C019093EC
S1130B401D01A0931E01B0931F01E091CE01F0910D
S1130B50CF01309739F069E070E0809136019091CF
S1130B60370109950E943001FF91EF91BF91AF9138
S1130B709F918F917F916F915F914F913F912F91B1
S1130B801F910F910F900FBE0F901F9018951F92F9
S1130B900F920FB60F9211240F931F932F933F932D
S1130BA04F935F936F937F938F939F93AF93BF9371
S1130BB0EF93FF9380911A0190911B01009184009F
S1130BC010918500AC01092E000C660B770BBA015D
S1130BD05527442720E030E0402B512B622B732B08
S1130BE040931C0150931D0160931E0170931F01DB
S1130BF0B09B1AC040918400509185000196092E43
S1130C00000CAA0BBB0BDC019927882760E070E07D
S1130C10842B952BA62BB72B80931C0190931D013D
S1130C20A0931E01B0931F01E091D001F091D10176
S1130C30309739F06AE070E0809138019091390181
S1130C4009950E943001FF91EF91BF91AF919F915F
S1130C508F917F916F915F914F913F912F911F9150
S1130C600F910F900FBE0F901F9018951F920F9227
S1130C700FB60F9211240F931F932F933F934F930B
S1130C805F936F937F938F939F93AF93BF93EF93F0
S1130C90FF9380911A0190911B010091840010919F
S1130CA08500AC01092E000C660B770BBA015527A1
S1130CB0442720E030E0402B512B622B732B4093D0
S1130CC01C0150931D0160931E0170931F01B09B82
S1130CD01AC040918400509185000196092E000CA1
S1130CE0AA0BBB0BDC019927882760E070E0842BFA
S1130CF0952BA62BB72B80931C0190931D01A093D9
S1130D001E01B0931F01E091D201F091D3013097FD
S1130D1039F06BE070E080913A0190913B010995C4
S1130D200E943001FF91EF91BF91AF919F918F91FC
S1130D307F916F915F914F913F912F911F910F91EF
S1130D400F900FBE0F901F9018951F920F920FB621
S1130D500F9211240F931F932F933F934F935F93FD
S1130D606F937F938F939F93AF93BF93EF93FF936F
S1130D7080911A0190911B010091840010918500CB
S1130D80AC01092E000C660B770BBA0155274427DA
S1130D9020E030E0402B512B622B732B40931C013D
S1130DA050931D0160931E0170931F01B09B1AC0E4
S1130DB040918400509185000196092E000CAA0BE5
S1130DC0BB0BDC019927882760E070E0842B952B0E
S1130DD0A62BB72B80931C0190931D01A0931E0199
S1130DE0B0931F01E091D401F091D501309739F00F
S1130DF06CE070E080913C0190913D0109950E9466
S1130E003001FF91EF91BF91AF919F918F917F91AD
S1130E106F915F914F913F912F911F910F910F907F
S1130E200FBE0F901F9018951F920F920FB60F923E
S1130E3011240F931F932F933F934F935F936F93BB
S1130E407F938F939F93AF93BF93EF93FF9380917F
S1130E501A0190911B010091840010918500AC014E
S1130E60092E000C660B770BBA015527442720E0A6
S1130E7030E0402B512B622B732B40931C01509379
S1130E801D0160931E0170931F01B09B1AC0409115
S1130E908400509185000196092E000CAA0BBB0B0F
S1130EA0DC019927882760E070E0842B952BA62B22
S1130EB0B72B80931C0190931D01A0931E01B09346
S1130EC01F01E091D601F091D701309739F06DE020
S1130ED070E080913E0190913F0109950E9430019C
S1130EE0FF91EF91BF91AF919F918F917F916F91FE
S1130EF05F914F913F912F911F910F910F900FBED2
S1130F000F901F9018951F920F920FB60F921124F5
S1130F100F931F932F933F934F935F936F937F93FD
S1130F208F939F93AF93BF93EF93FF9380911A0195
S1130F3090911B010091840010918500AC01092E51
S1130F40000C660B770BBA015527442720E030E0EC
S1130F50402B512B622B732B40931C0150931D018A
S1130F6060931E0170931F01B09B1AC040918400CE
S1130F70509185000196092E000CAA0BBB0BDC01D5
S1130F809927882760E070E0842B952BA62BB72B3C
S1130F9080931C0190931D01A0931E01B0931F0127
S1130FA0E091D801F091D901309739F06EE070E00A
S1130FB0809140019091410109950E943001FF9177
S1130FC0EF91BF91AF919F918F917F916F915F91BD
S1130FD04F913F912F911F910F910F900FBE0F9042
S1130FE01F9018951F920F920FB60F9211240F9312
S1130FF01F932F933F934F935F936F937F938F939D
S11310009F93AF93BF93EF93FF9380911A019091B5
S11310101B010091840010918500AC01092E000C85
S1131020660B770BBA015527442720E030E0402BAC
S1131030512B622B732B40931C0150931D01609321
S11310401E0170931F01B09B1AC0409184005091FF
S113105085000196092E000CAA0BBB0BDC01992715
S1131060882760E070E0842B952BA62BB72B809308
S11310701C0190931D01A0931E01B0931F01E091E8
S1131080DA01F091DB01309739F06FE070E0809184
S113109042019091430109950E943001FF91EF9123
S11310A0BF91AF919F918F917F916F915F914F917C
S11310B03F912F911F910F910F900FBE0F901F9092
S11310C018951F920F920FB60F9211240F931F932E
S11310D02F933F934F935F936F937F938F939F933C
S11310E0AF93BF93EF93FF9380911A0190911B01EB
S11310F00091840010918500AC01092E000C660B50
S1131100770BBA015527442720E030E0402B512BC0
S1131110622B732B40931C0150931D0160931E019D
S113112070931F01B09B1AC04091840050918500B8
S11311300196092E000CAA0BBB0BDC01992788270A
S113114060E070E0842B952BA62BB72B80931C01B9
S113115090931D01A0931E01B0931F01E091DC0147
S1131160F091DD01309739F060E170E08091440145
S11311709091450109950E943001FF91EF91BF9133
S1131180AF919F918F917F916F915F914F913F911B
S11311902F911F910F910F900FBE0F901F901895D4
S11311A01F920F920FB60F9211240F931F932F9338
S11311B03F934F935F936F937F938F939F93AF93DB
S11311C0BF93EF93FF9380911A0190911B010091BB
S11311D0840010918500AC01092E000C660B770B7E
S11311E0BA015527442720E030E0402B512B622BD5
S11311F0732B40931C0150931D0160931E01709347
S11312001F01B09B1AC04091840050918500019643
S1131210092E000CAA0BBB0BDC019927882760E080
S113122070E0842B952BA62BB72B80931C019093F5
S11312301D01A0931E01B0931F01E091DE01F09106
S1131240DF01309739F061E170E0809146019091BF
S1131250470109950E943001FF91EF91BF91AF9131
S11312609F918F917F916F915F914F913F912F91BA
S11312701F910F910F900FBE0F901F901895CF9252
S1131280DF92EF92FF920F931F93CF93DF93DB01D3
S1131290ED91FC91A0E0B0E0309799F0C680D78042
S11312A0E084F184EC010E811F81288539850C15B9
S11312B01D052E053F052CF0DF010190F081E02D86
S11312C0EBCFEC01F983E883109721F4FB019183C0
S11312D0808302C08D939C93DF91CF911F910F91D6
S11312E0FF90EF90DF90CF900895DC01ED91FC9199
S11312F01197309759F48FEF8093EC008093ED00B1
S11313008093EE0081E083BF8895FDCF20813181F9
S11313102D933C93CF0108951F920F920FB60F9215
S113132011242F933F934F935F938F939F93AF9386
S1131330BF93EF93FF9320911A0130911B012F5F0C
S11313403F4F30931B0120931A01E0912001F0914B
S113135021013097F1F082819381A481B5812A170C
S11313603B07B9F49C014091840050918500841B93
S1131370950B019731F420918400309185002F5F03
S11313803F4F309389002093880080916F008260E2
S113139003C080916F008D7F80936F00FF91EF9168
S11313A0BF91AF919F918F915F914F913F912F91F9
S11313B00F900FBE0F901F9018951F920F920FB6AB
S11313C00F921124CF92DF92EF92FF922F933F93CB
S11313D04F935F936F937F938F939F93AF93BF9339
S11313E0EF93FF9380911A0190911B01C0908400A8
S11313F0D0908500B09B05C0C0908400D09085003B
S11314000196092E000CAA0BBB0BDC019927882737
S1131410E12CF12CC82AD92AEA2AFB2AE0912001DE
S1131420F09121013097F9F082819381A481B581F3
S1131430AC01BD014C195D096E097F09141615062E
S1131440160617064CF080E291E00E94750962E2EC
S113145071E00E943F09E2CF20911A0130911B01F3
S11314602A173B07E1F080916F008D7F80936F0016
S11314700E943001FF91EF91BF91AF919F918F91A5
S11314807F916F915F914F913F912F91FF90EF90DA
S1131490DF90CF900F900FBE0F901F9018959C0176
S11314A04091840050918500841B950B019731F481
S11314B020918400309185002F5F3F4F3093890045
S11314C02093880080916F008260D0CF052E97FB17
S11314D01EF400940E947D0A57FD07D00E94850ADD
S11314E007FC03D04EF40C947D0A5095409530953A
S11314F021953F4F4F4F5F4F08959095809570957C
S113150061957F4F8F4F9F4F0895A1E21A2EAA1B1A
S1131510BB1BFD010DC0AA1FBB1FEE1FFF1FA2179F
S1131520B307E407F50720F0A21BB30BE40BF50B9C
S1131530661F771F881F991F1A9469F76095709525
S1131540809590959B01AC01BD01CF010895DC010C
S11315502D923D924D925D926D927D928D929D92CF
S1131560AD92BD92CD92DD92ED92FD920D931D93BD
S1131570CD93DD93FF91EF918DB78D938EB78D93BE
S11315808FB78D93ED93FD93882799270994DC01F8
S1131590CB0181309105811D2D903D904D905D9042
S11315A06D907D908D909D90AD90BD90CD90DD908F
S11315B0ED90FD900D911D91CD91DD91ED91FD91F9
S11315C00D90F894FEBF0FBEEDBFED91FD9109940F
S10715D0F894FFCFB9
S11315D4E001E001480151151001111E111B500BCB
S10D15E4411B411F1101511F510B5F
S9030000FC
