:100000000C942E000C9457040C94C6040C943505E3
:100010000C94A4050C9413060C944B000C94F90C4E
:100020000C944B000C94A80C0C9482060C94F106D2
:100030000C9460070C94CF070C943E080C94AD0808
:100040000C941C090C948B090C94FA090C94690A01
:100050000C94D80A0C94470B0C94B60B11241FBEB9
:10006000CFEFD4E0DEBFCDBF11E0A0E0B1E0E0E330
:10007000F0E202C005900D92A233B107D9F724E057
:10008000A2E3B1E001C01D92A938B207E1F70E94D6
:1000900078030C9416100C9400006093C600089529
:1000A000CF92DF92EF92FF920F931F93CF93DF9344
:1000B000EC0188859985009729F52E813F812115CE
:1000C000310509F04CC06AE0C62ED12C7DE4E72E44
:1000D00070E0F72E8E0120E030E0A90160E070E0D2
:1000E000CB010E94820DEEE2EE2EE3E0FE2E20E038
:1000F00030E0A90160E070E0CB010E94820D1D8616
:100100001C86D7C0181619060CF061C02E813F81DD
:10011000232B09F05CC08A859B8559E0C52ED12C24
:10012000892B09F041C03DE4E32E30E0F32E8E012F
:1001300020E030E0A90160E070E0CB010E94820D78
:100140004EE2E42E43E0F42E20E030E0A90160E02E
:1001500070E0CB010E94820D81E08E87AAC012164A
:100160001306ACF58A859B8526E0C22ED12C892BFF
:10017000D9F41DE4E12E10E0F12E8E0120E030E0F4
:10018000A90160E070E0CB010E94820D8EE2E82EB2
:1001900083E0F82E20E030E0A90160E070E0CB01C0
:1001A0000E94820D1E8685C0AEE2EA2EA3E0FA2EE2
:1001B0008E0120E030E0A9016AE572E682E090E07D
:1001C0000E94820DBDE4EB2EB0E0FB2E69C02C85B1
:1001D0003D85253031050CF46CC02E85222339F184
:1001E000181619060CF065C01E866AE0C62ED12CC2
:1001F0007DE4E72E70E0F72E8E0120E030E0A901CB
:1002000060E070E0CB010E94820D1D861C86EEE24C
:10021000EE2EE3E0FE2E20E030E0A90160E070E089
:10022000CB010E94820DF6E0CF2ED12C28C08E810A
:100230009F8118161906ECF581E08E872AE0C22E00
:10024000D12C3DE4E32E30E0F32E8E0120E030E0AF
:10025000A90160E070E0CB010E94820D1D861C8622
:100260004EE2E42E43E0F42E20E030E0A90160E00D
:1002700070E0CB010E94820D59E0C52ED12C8DE497
:10028000E82E80E0F82E20E030E0A9016AE572E671
:1002900082E090E00E94820D9EE2E92E93E0F92E2A
:1002A00020E030E0A9016AE572E682E090E00E9479
:1002B000820DDF91CF911F910F91FF90EF90DF9012
:1002C000CF900895CF92DF92EF92FF920F931F93FA
:1002D000FC0161307105C9F48C014285538566E2E9
:1002E00073E0848195810E94810EC12CD12C82E61D
:1002F000E82E81E0F82E20E030E0A9016AE572E600
:1003000082E090E00E94820D14C0672B91F4428538
:100310005385415051095387428766E273E08481D7
:1003200095811F910F91FF90EF90DF90CF900C94EB
:10033000810E1F910F91FF90EF90DF90CF90089565
:10034000CF92DF92EF92FF920F931F93CF93DF93A1
:10035000EC0160FF1DC0C12CD12CA0E5EA2EA0E06D
:10036000FA2E8C0120E030E0A90160E070E0CB01C2
:100370000E94820DC884D9848FEFC81AD80AD98602
:10038000C8860C811D81B6E1EB2EB3E0FB2E55C073
:1003900061FF35C088859985181619060CF098C03C
:1003A0000197998788878A859B8501969B878A878D
:1003B000C12CD12C60E5E62E60E0F62E8E0120E007
:1003C00030E0A90160E070E0CB010E94820DCC24F6
:1003D000C394D12CE2E6EE2EE1E0FE2E20E030E0E8
:1003E000A90160E070E0CB010E94820DC884D9842D
:1003F0000C811D81F6E1EF2EF3E0FF2E5CC062FF61
:1004000025C0C12CD12C40E5E42E40E0F42E8C0117
:1004100020E030E0A90160E070E0CB010E94820D95
:10042000CE80DF808FEFC81AD80ADF82CE820C819F
:100430001D815EE1E52E53E0F52E20E030E0A901BC
:1004400060E070E0CB010E94820D42C063FF40C0BB
:100450008E819F8118161906DCF501979F838E8384
:100460008A859B8501969B878A87C12CD12C80E544
:10047000E82E80E0F82E8E0120E030E0A90160E057
:1004800070E0CB010E94820DCC24C394D12C22E6D3
:10049000E22E21E0F22E20E030E0A90160E070E0E1
:1004A000CB010E94820DCE80DF800C811D813EE158
:1004B000E32E33E0F32E20E030E0A90160E070E0AD
:1004C000CB010E94820D8C859D8501969D878C872E
:1004D000DF91CF911F910F91FF90EF90DF90CF9020
:1004E0000895CF92DF92EF92FF920F931F93C090E7
:1004F000C600D12CFC010481158180EAE82E81E040
:10050000F82E20E030E0A90160E070E0CB010E940D
:10051000820D1F910F91FF90EF90DF90CF90089583
:10052000CF93DF93CDB7DEB764970FB6F894DEBFF5
:100530000FBECDBF94E1EDE1F1E0DE011196019037
:100540000D929A95E1F76630710580F5E82FF0E09D
:10055000F097EE0FFF1F81E090E08C0F9D1FE80FDA
:10056000F91F20813181FB01F595E795E451FF4F9B
:10057000DB01A170BB2760FF02C04FE001C040EF6C
:10058000BF016C5E7F4F822F8F7094E03695279568
:100590009A95E1F7109711F08295807F90819423CE
:1005A000892B808335966E177F0769F764960FB69F
:1005B000F894DEBF0FBECDBFDF91CF9108958F922B
:1005C0009F92AF92BF92CF92DF92EF92FF92CF9322
:1005D000DF934B015C01EA0124E630E040E050E0AB
:1005E0000E94940F2AE0C22ED12CE12CF12CA701FD
:1005F00096010E94940FBE0180E3820F0E94900238
:100600002196C501B401A70196010E94940F862F7F
:10061000BE01805DDF91CF91FF90EF90DF90CF9092
:10062000BF90AF909F908F900C949002072E000C7B
:10063000880B990B44E050E00C94DF02072E000C6D
:10064000880B990B40E050E00C94DF02072E000C61
:10065000880B990B42E050E00C94DF026A30710580
:1006600021F481E08093EF0006C06930710531F418
:100670001092EF0081E08093FE00089566307105CE
:1006800029F481E08093EF001092FE00089580E845
:100690008093E4008FE08093E70087EB8093E50090
:1006A00087E08093E60040E050E060E070E0CB013E
:1006B0000E94DF0242E050E060E070E0CB010E9467
:1006C000DF0244E050E060E070E0CB010C94DF0218
:1006D00080EC8CBB8DBB08951092C50083E38093A2
:1006E000C40088E98093C10086E08093C200089529
:1006F0000E9447030E9468030E946C0348E061E780
:1007000072E080E091E00E945E0F40E050E066E21F
:1007100073E082E391E00C94780FCF93DF9300D0E5
:1007200000D0CDB7DEB7E9E1F2E029EF32E0CF014A
:10073000409691838083FC0182179307C1F7109242
:10074000FA021092F902E4E6F1E081E891E0918387
:1007500080838EE991E0968F858FABEBB1E0B3AFEC
:10076000A2AF1D921C92FA83E9831C821B828981AD
:100770009A8106960E94D50F8B819C818B599C4F44
:10078000E981FA81978B868B918F808F8BEF9EE02A
:10079000948F838F158214827D96FA83E983EB818F
:1007A000FC81E05AFF4FFC83EB83E038F140F9F61F
:1007B000ECEFF1E011821082158214821382128212
:1007C000E1E6F0E080E880831082109285001092CC
:1007D000840084E08093810081E080936F000F901B
:1007E0000F900F900F90DF91CF910895CF93DF93EB
:1007F00000D0CDB7DEB79A8389838091150190919F
:10080000160106960E94D50F892B59F489819A8189
:10081000909316018093150161E070E006960E94A6
:10082000F50F0F900F90DF91CF9108950F931F93C5
:10083000CF93DF93C0913E01D0913F01209791F17A
:100840008091190190911A01009761F1E0911701CF
:10085000F0911801A281B381109781F04E815F81E0
:100860006885798516960D911D912D913C9119976A
:10087000401B510B620B730B77FF14C0DC012D91F1
:100880003C91119730931A0120931901ED93FC9339
:100890009093180180931701DF91CF911F910F91D1
:1008A0000C94F603DF91CF911F910F9108951F9241
:1008B0000F920FB60F9211240F931F932F933F9314
:1008C0004F935F936F937F938F939F93AF93BF9358
:1008D000EF93FF938091360190913701009184004E
:1008E00010918500AC01092E000C660B770BBA0144
:1008F0005527442720E030E0402B512B622B732BEF
:10090000409338015093390160933A0170933B0151
:10091000B09B1AC040918400509185000196092E29
:10092000000CAA0BBB0BDC019927882760E070E064
:10093000842B952BA62BB72B8093380190933901EC
:10094000A0933A01B0933B01E091D801F091D90115
:10095000309739F060E070E0809140019091410162
:1009600009950E941604FF91EF91BF91AF919F915D
:100970008F917F916F915F914F913F912F911F9137
:100980000F910F900FBE0F901F9018951F920F920E
:100990000FB60F9211240F931F932F933F934F93F2
:1009A0005F936F937F938F939F93AF93BF93EF93D7
:1009B000FF9380913601909137010091840010914E
:1009C0008500AC01092E000C660B770BBA01552788
:1009D000442720E030E0402B512B622B732B4093B7
:1009E00038015093390160933A0170933B01B09BF9
:1009F0001AC040918400509185000196092E000C88
:100A0000AA0BBB0BDC019927882760E070E0842BE0
:100A1000952BA62BB72B8093380190933901A09387
:100A20003A01B0933B01E091DA01F091DB0130979C
:100A300039F061E070E080914201909143010995A5
:100A40000E941604FF91EF91BF91AF919F918F91FA
:100A50007F916F915F914F913F912F911F910F91D6
:100A60000F900FBE0F901F9018951F920F920FB608
:100A70000F9211240F931F932F933F934F935F93E4
:100A80006F937F938F939F93AF93BF93EF93FF9356
:100A9000809136019091370100918400109185007A
:100AA000AC01092E000C660B770BBA0155274427C1
:100AB00020E030E0402B512B622B732B4093380108
:100AC0005093390160933A0170933B01B09B1AC077
:100AD00040918400509185000196092E000CAA0BCC
:100AE000BB0BDC019927882760E070E0842B952BF5
:100AF000A62BB72B8093380190933901A0933A012C
:100B0000B0933B01E091DC01F091DD01309739F0C9
:100B100062E070E0809144019091450109950E9446
:100B20001604FF91EF91BF91AF919F918F917F91AB
:100B30006F915F914F913F912F911F910F910F9066
:100B40000FBE0F901F9018951F920F920FB60F9225
:100B500011240F931F932F933F934F935F936F93A2
:100B60007F938F939F93AF93BF93EF93FF93809166
:100B70003601909137010091840010918500AC01FD
:100B8000092E000C660B770BBA015527442720E08D
:100B900030E0402B512B622B732B40933801509344
:100BA000390160933A0170933B01B09B1AC04091A8
:100BB0008400509185000196092E000CAA0BBB0BF6
:100BC000DC019927882760E070E0842B952BA62B09
:100BD000B72B8093380190933901A0933A01B093D9
:100BE0003B01E091DE01F091DF01309739F063E0E5
:100BF00070E0809146019091470109950E9416048A
:100C0000FF91EF91BF91AF919F918F917F916F91E4
:100C10005F914F913F912F911F910F910F900FBEB8
:100C20000F901F9018951F920F920FB60F921124DC
:100C30000F931F932F933F934F935F936F937F93E4
:100C40008F939F93AF93BF93EF93FF938091360160
:100C5000909137010091840010918500AC01092E1C
:100C6000000C660B770BBA015527442720E030E0D3
:100C7000402B512B622B732B409338015093390139
:100C800060933A0170933B01B09B1AC0409184007D
:100C9000509185000196092E000CAA0BBB0BDC01BC
:100CA0009927882760E070E0842B952BA62BB72B23
:100CB0008093380190933901A0933A01B0933B019E
:100CC000E091E001F091E101309739F064E070E0EB
:100CD000809148019091490109950E941604FF9165
:100CE000EF91BF91AF919F918F917F916F915F91A4
:100CF0004F913F912F911F910F910F900FBE0F9029
:100D00001F9018951F920F920FB60F9211240F93F8
:100D10001F932F933F934F935F936F937F938F9383
:100D20009F93AF93BF93EF93FF9380913601909180
:100D300037010091840010918500AC01092E000C50
:100D4000660B770BBA015527442720E030E0402B93
:100D5000512B622B732B40933801509339016093D0
:100D60003A0170933B01B09B1AC0409184005091AE
:100D700085000196092E000CAA0BBB0BDC019927FC
:100D8000882760E070E0842B952BA62BB72B8093EF
:100D9000380190933901A0933A01B0933B01E0915F
:100DA000E201F091E301309739F065E070E0809165
:100DB0004A0190914B0109950E941604FF91EF9111
:100DC000BF91AF919F918F917F916F915F914F9163
:100DD0003F912F911F910F910F900FBE0F901F9079
:100DE00018951F920F920FB60F9211240F931F9315
:100DF0002F933F934F935F936F937F938F939F9323
:100E0000AF93BF93EF93FF93809136019091370199
:100E10000091840010918500AC01092E000C660B36
:100E2000770BBA015527442720E030E0402B512BA7
:100E3000622B732B409338015093390160933A0130
:100E400070933B01B09B1AC0409184005091850083
:100E50000196092E000CAA0BBB0BDC0199278827F1
:100E600060E070E0842B952BA62BB72B8093380184
:100E700090933901A0933A01B0933B01E091E401D2
:100E8000F091E501309739F066E070E080914C0117
:100E900090914D0109950E941604FF91EF91BF9129
:100EA000AF919F918F917F916F915F914F913F9102
:100EB0002F911F910F910F900FBE0F901F901895BB
:100EC0001F920F920FB60F9211240F931F932F931F
:100ED0003F934F935F936F937F938F939F93AF93C2
:100EE000BF93EF93FF93809136019091370100916A
:100EF000840010918500AC01092E000C660B770B65
:100F0000BA015527442720E030E0402B512B622BBB
:100F1000732B409338015093390160933A017093D9
:100F20003B01B09B1AC0409184005091850001960E
:100F3000092E000CAA0BBB0BDC019927882760E067
:100F400070E0842B952BA62BB72B809338019093C0
:100F50003901A0933A01B0933B01E091E601F09191
:100F6000E701309739F067E070E080914E01909191
:100F70004F0109950E941604FF91EF91BF91AF9127
:100F80009F918F917F916F915F914F913F912F91A1
:100F90001F910F910F900FBE0F901F9018951F92E9
:100FA0000F920FB60F9211240F931F932F933F931D
:100FB0004F935F936F937F938F939F93AF93BF9361
:100FC000EF93FF9380913601909137010091840057
:100FD00010918500AC01092E000C660B770BBA014D
:100FE0005527442720E030E0402B512B622B732BF8
:100FF000409338015093390160933A0170933B015B
:10100000B09B1AC040918400509185000196092E32
:10101000000CAA0BBB0BDC019927882760E070E06D
:10102000842B952BA62BB72B8093380190933901F5
:10103000A0933A01B0933B01E091E801F091E901FE
:10104000309739F068E070E0809150019091510143
:1010500009950E941604FF91EF91BF91AF919F9166
:101060008F917F916F915F914F913F912F911F9140
:101070000F910F900FBE0F901F9018951F920F9217
:101080000FB60F9211240F931F932F933F934F93FB
:101090005F936F937F938F939F93AF93BF93EF93E0
:1010A000FF93809136019091370100918400109157
:1010B0008500AC01092E000C660B770BBA01552791
:1010C000442720E030E0402B512B622B732B4093C0
:1010D00038015093390160933A0170933B01B09B02
:1010E0001AC040918400509185000196092E000C91
:1010F000AA0BBB0BDC019927882760E070E0842BEA
:10110000952BA62BB72B8093380190933901A09390
:101110003A01B0933B01E091EA01F091EB01309785
:1011200039F069E070E08091520190915301099586
:101130000E941604FF91EF91BF91AF919F918F9103
:101140007F916F915F914F913F912F911F910F91DF
:101150000F900FBE0F901F9018951F920F920FB611
:101160000F9211240F931F932F933F934F935F93ED
:101170006F937F938F939F93AF93BF93EF93FF935F
:101180008091360190913701009184001091850083
:10119000AC01092E000C660B770BBA0155274427CA
:1011A00020E030E0402B512B622B732B4093380111
:1011B0005093390160933A0170933B01B09B1AC080
:1011C00040918400509185000196092E000CAA0BD5
:1011D000BB0BDC019927882760E070E0842B952BFE
:1011E000A62BB72B8093380190933901A0933A0135
:1011F000B0933B01E091EC01F091ED01309739F0B3
:101200006AE070E0809154019091550109950E9427
:101210001604FF91EF91BF91AF919F918F917F91B4
:101220006F915F914F913F912F911F910F910F906F
:101230000FBE0F901F9018951F920F920FB60F922E
:1012400011240F931F932F933F934F935F936F93AB
:101250007F938F939F93AF93BF93EF93FF9380916F
:101260003601909137010091840010918500AC0106
:10127000092E000C660B770BBA015527442720E096
:1012800030E0402B512B622B732B4093380150934D
:10129000390160933A0170933B01B09B1AC04091B1
:1012A0008400509185000196092E000CAA0BBB0BFF
:1012B000DC019927882760E070E0842B952BA62B12
:1012C000B72B8093380190933901A0933A01B093E2
:1012D0003B01E091EE01F091EF01309739F06BE0C6
:1012E00070E0809156019091570109950E94160473
:1012F000FF91EF91BF91AF919F918F917F916F91EE
:101300005F914F913F912F911F910F910F900FBEC1
:101310000F901F9018951F920F920FB60F921124E5
:101320000F931F932F933F934F935F936F937F93ED
:101330008F939F93AF93BF93EF93FF938091360169
:10134000909137010091840010918500AC01092E25
:10135000000C660B770BBA015527442720E030E0DC
:10136000402B512B622B732B409338015093390142
:1013700060933A0170933B01B09B1AC04091840086
:10138000509185000196092E000CAA0BBB0BDC01C5
:101390009927882760E070E0842B952BA62BB72B2C
:1013A0008093380190933901A0933A01B0933B01A7
:1013B000E091F001F091F101309739F06CE070E0CC
:1013C000809158019091590109950E941604FF914E
:1013D000EF91BF91AF919F918F917F916F915F91AD
:1013E0004F913F912F911F910F910F900FBE0F9032
:1013F0001F9018951F920F920FB60F9211240F9302
:101400001F932F933F934F935F936F937F938F938C
:101410009F93AF93BF93EF93FF9380913601909189
:1014200037010091840010918500AC01092E000C59
:10143000660B770BBA015527442720E030E0402B9C
:10144000512B622B732B40933801509339016093D9
:101450003A0170933B01B09B1AC0409184005091B7
:1014600085000196092E000CAA0BBB0BDC01992705
:10147000882760E070E0842B952BA62BB72B8093F8
:10148000380190933901A0933A01B0933B01E09168
:10149000F201F091F301309739F06DE070E0809146
:1014A0005A0190915B0109950E941604FF91EF91FA
:1014B000BF91AF919F918F917F916F915F914F916C
:1014C0003F912F911F910F910F900FBE0F901F9082
:1014D00018951F920F920FB60F9211240F931F931E
:1014E0002F933F934F935F936F937F938F939F932C
:1014F000AF93BF93EF93FF938091360190913701A3
:101500000091840010918500AC01092E000C660B3F
:10151000770BBA015527442720E030E0402B512BB0
:10152000622B732B409338015093390160933A0139
:1015300070933B01B09B1AC040918400509185008C
:101540000196092E000CAA0BBB0BDC0199278827FA
:1015500060E070E0842B952BA62BB72B809338018D
:1015600090933901A0933A01B0933B01E091F401CB
:10157000F091F501309739F06EE070E080915C01F8
:1015800090915D0109950E941604FF91EF91BF9122
:10159000AF919F918F917F916F915F914F913F910B
:1015A0002F911F910F910F900FBE0F901F901895C4
:1015B0001F920F920FB60F9211240F931F932F9328
:1015C0003F934F935F936F937F938F939F93AF93CB
:1015D000BF93EF93FF938091360190913701009173
:1015E000840010918500AC01092E000C660B770B6E
:1015F000BA015527442720E030E0402B512B622BC5
:10160000732B409338015093390160933A017093E2
:101610003B01B09B1AC04091840050918500019617
:10162000092E000CAA0BBB0BDC019927882760E070
:1016300070E0842B952BA62BB72B809338019093C9
:101640003901A0933A01B0933B01E091F601F0918A
:10165000F701309739F06FE070E080915E01909172
:101660005F0109950E941604FF91EF91BF91AF9120
:101670009F918F917F916F915F914F913F912F91AA
:101680001F910F910F900FBE0F901F9018951F92F2
:101690000F920FB60F9211240F931F932F933F9326
:1016A0004F935F936F937F938F939F93AF93BF936A
:1016B000EF93FF9380913601909137010091840060
:1016C00010918500AC01092E000C660B770BBA0156
:1016D0005527442720E030E0402B512B622B732B01
:1016E000409338015093390160933A0170933B0164
:1016F000B09B1AC040918400509185000196092E3C
:10170000000CAA0BBB0BDC019927882760E070E076
:10171000842B952BA62BB72B8093380190933901FE
:10172000A0933A01B0933B01E091F801F091F901E7
:10173000309739F060E170E0809160019091610133
:1017400009950E941604FF91EF91BF91AF919F916F
:101750008F917F916F915F914F913F912F911F9149
:101760000F910F900FBE0F901F9018951F920F9220
:101770000FB60F9211240F931F932F933F934F9304
:101780005F936F937F938F939F93AF93BF93EF93E9
:10179000FF93809136019091370100918400109160
:1017A0008500AC01092E000C660B770BBA0155279A
:1017B000442720E030E0402B512B622B732B4093C9
:1017C00038015093390160933A0170933B01B09B0B
:1017D0001AC040918400509185000196092E000C9A
:1017E000AA0BBB0BDC019927882760E070E0842BF3
:1017F000952BA62BB72B8093380190933901A0939A
:101800003A01B0933B01E091FA01F091FB0130976E
:1018100039F061E170E08091620190916301099576
:101820000E941604FF91EF91BF91AF919F918F910C
:101830007F916F915F914F913F912F911F910F91E8
:101840000F900FBE0F901F901895CF92DF92EF92DE
:10185000FF920F931F93CF93DF93DB01ED91FC91E8
:10186000A0E0B0E0309799F0C680D780E084F184A2
:10187000EC010E811F81288539850C151D052E056B
:101880003F052CF0DF010190F081E02DEBCFEC0162
:10189000F983E883109721F4FB019183808302C0D0
:1018A0008D939C93DF91CF911F910F91FF90EF90BB
:1018B000DF90CF900895CF92DF92EF92FF920F9337
:1018C0001F93CF93DF93DB01ED91FC91A0E0B0E09B
:1018D000309799F0C280D380E480F580EC010A81D2
:1018E0001B812C813D810C151D052E053F052CF01B
:1018F000DF010190F081E02DEBCFEC01F983E8836B
:10190000109721F4FB019183808302C08D939C93F7
:10191000DF91CF911F910F91FF90EF90DF90CF90CB
:101920000895DC01ED91FC911197309759F48FEFF8
:101930008093EC008093ED008093EE0081E083BF04
:101940008895FDCF208131812D933C93CF0108955F
:101950001F920F920FB60F9211242F933F934F9324
:101960005F938F939F93AF93BF93EF93FF932091D8
:101970003601309137012F5F3F4F3093370120936D
:101980003601E0913C01F0913D013097F1F0828108
:101990009381A481B5812A173B07B9F49C0140913A
:1019A000840050918500841B950B019731F42091A0
:1019B0008400309185002F5F3F4F30938900209342
:1019C000880080916F00826003C080916F008D7FDE
:1019D00080936F00FF91EF91BF91AF919F918F9195
:1019E0005F914F913F912F910F900FBE0F901F90DD
:1019F00018951F920F920FB60F921124CF92DF927B
:101A0000EF92FF922F933F934F935F936F937F9348
:101A10008F939F93AF93BF93EF93FF938091360182
:101A200090913701C0908400D0908500B09B05C094
:101A3000C0908400D09085000196092E000CAA0B5E
:101A4000BB0BDC0199278827E12CF12CC82AD92A65
:101A5000EA2AFB2AE0913C01F0913D013097F9F030
:101A600082819381A481B581AC01BD014C195D09CE
:101A70006E097F0914161506160617064CF08CE33E
:101A800091E00E94910C6EE371E00E94250CE2CF80
:101A900020913601309137012A173B07E1F0809100
:101AA0006F008D7F80936F000E941604FF91EF916D
:101AB000BF91AF919F918F917F916F915F914F9166
:101AC0003F912F91FF90EF90DF90CF900F900FBE3E
:101AD0000F901F9018959C014091840050918500B3
:101AE000841B950B019731F420918400309185007F
:101AF0002F5F3F4F309389002093880080916F00C3
:101B00008260D0CF3F924F925F926F927F928F927E
:101B10009F92AF92BF92CF92DF92EF92FF920F937C
:101B20001F93CF93DF932B013C0149015A018FB7DB
:101B30008078382EF8948BE191E00E94910CEC01B2
:101B40001B870A87FD86EC86DF86CE86332061F010
:101B5000E0911501F09116010280F381E02D828160
:101B60009381A481B58108C0809138019091390199
:101B7000A0913A01B0913B01480E591E6A1E7B1E8E
:101B80004A825B826C827D82181419041A041B0439
:101B900034F088248A94982CA82C5FE7B52E840C06
:101BA000951CA61CB71C8E829F82A886B986809140
:101BB0003601909137012091840030918500B09BCF
:101BC00005C020918400309185000196092E000CFB
:101BD000AA0BBB0BDC0199278827A90160E070E004
:101BE000842B952BA62BB72B481A590A6A0A7B0A15
:101BF0001414150416041704ACF56CE371E0CE015F
:101C00000E945B0CE0913C01F0913D01309711F195
:101C100082819381A481B581209136013091370171
:101C20002A173B07B9F49C0140918400509185002C
:101C3000841B950B019731F420918400309185002D
:101C40002F5F3F4F309389002093880080916F0071
:101C5000826003C080916F008D7F80936F00311090
:101C60003CC03CC06EE371E0CE010E94250C3320E5
:101C7000A9F18091190190911A01009771F1E091F9
:101C80001701F091180120913E0130913F0102812E
:101C90001381D90116964D915D916D917C911997A3
:101CA000D80116960D911D912D913C911997401BCD
:101CB000510B620B730B77FF10C0DC012D913C912F
:101CC000119730931A0120931901ED93FC9390938F
:101CD0001801809317010E94F6037894CE01DF91DA
:101CE000CF911F910F91FF90EF90DF90CF90BF9019
:101CF000AF909F908F907F906F905F904F903F90AC
:101D00000895CF92DF92FF920F931F93CF93DF93AB
:101D1000EC018B016A018FB78078F82EF8948881E6
:101D200099810097A1F1DC011496ED91FC91159732
:101D3000309719F080819181F6CFE0911501F091F3
:101D400016018E179F0721F0FF2009F448C005C037
:101D5000FF2009F444C0789442C0AA81BB81109747
:101D600021F015961C921E921497FB83EA83D5836B
:101D7000C4830E94F603E0911501F091160182815F
:101D80009381892B21F4789480E090E02CC080919D
:101D900015019091160199838883FF2029F08A818B
:101DA0009B81019709F07894B601CE01F80109955D
:101DB0008C018FB7F894198218828A819B818230B6
:101DC000910548F01B821A82DC0115961C921E9226
:101DD00014970E94F603FF2029F0789403C08FEF38
:101DE0009FEF01C0C801DF91CF911F910F91FF902C
:101DF000DF90CF90089500911501109116018EE3A8
:101E000091E00E94910CEC01D80113969C938E9363
:101E1000129778944E855F856C857D858A859B8534
:101E20000E94810E8FB7F89480911B0190911C0144
:101E300099838883D0931C01C0931B01E091170103
:101E4000F091180180819181EC01AA81BB81C09140
:101E50003E01D0913F012097B1F0109761F24E8181
:101E60005F816885798516960D911D912D913C9124
:101E70001997401B510B620B730B141615061606AF
:101E800017060CF0B8CF909318018093170120919A
:101E9000190130911A0131832083F0931A01E093E4
:101EA0001901DC011496ED91FC911597309719F00A
:101EB00080819181F6CF0E94F6039DCF4231B8F424
:101EC0002FB7F89450E0440F551FFA01E05CFE4F25
:101ED00091838083FA01E852FE4F7183608341E071
:101EE00050E0FC015383428327FF01C0789408959A
:101EF0008C017B016A018FB7F8940E948D0378945E
:101F0000E114F10441F020E030E0A90160E070E06C
:101F1000CB010E94820D8FB7F8940E94160478942A
:101F200081E083BF8895FDCF052E97FB1EF40094BA
:101F30000E94AB0F57FD07D00E94B30F07FC03D0E0
:101F40004EF40C94AB0F50954095309521953F4F32
:101F50004F4F5F4F089590958095709561957F4F95
:101F60008F4F9F4F0895A1E21A2EAA1BBB1BFD01A4
:101F70000DC0AA1FBB1FEE1FFF1FA217B307E40768
:101F8000F50720F0A21BB30BE40BF50B661F771FC0
:101F9000881F991F1A9469F76095709580959095A0
:101FA0009B01AC01BD01CF010895DC012D923D9252
:101FB0004D925D926D927D928D929D92AD92BD9269
:101FC000CD92DD92ED92FD920D931D93CD93DD9315
:101FD000FF91EF918DB78D938EB78D938FB78D93C2
:101FE000ED93FD93882799270994DC01CB0181307B
:101FF0009105811D2D903D904D905D906D907D904F
:102000008D909D90AD90BD90CD90DD90ED90FD9028
:102010000D911D91CD91DD91ED91FD910D90F89473
:10202000FEBF0FBEEDBFED91FD910994F894FFCF77
:102030000000000006010000000032010000000066
:102040000000000000FC01FC0164011902511510A0
:1020500001111E111B500B411B411F1101511F513A
:022060000B0073
:00000001FF
