:100000000C942E000C9407040C9476040C94E504D4
:100010000C9454050C94C3050C944B000C94A90C3F
:100020000C944B000C94580C0C9432060C94A106C2
:100030000C9410070C947F070C94EE070C945D0849
:100040000C94CC080C943B090C94AA090C94190A42
:100050000C94880A0C94F70A0C94660B11241FBEAA
:10006000CFEFD4E0DEBFCDBF11E0A0E0B1E0E0E92A
:10007000FFE102C005900D92A233B107D9F724E049
:10008000A2E3B1E001C01D92A938B207E1F70E94D6
:1000900028030C94C60F0C940000CF92DF92EF92CD
:1000A000FF920F931F93CF93DF93EC01888599857F
:1000B0000097B9F48E819F81009791F5AAE0CA2E2E
:1000C000D12CB1EFEB2EB0E0FB2E8E0120E030E022
:1000D000A90160E070E0CB010E94320D1D861C86F4
:1000E00077C018161906B4F58E819F81892B91F57A
:1000F0008A859B85E9E0CE2ED12CF1EFEF2EF0E042
:10010000FF2E8E0120E030E0A901892B09F05AC0B2
:1001100060E070E0CB010E94320D81E08E8758C014
:1001200018161906BCF48A859B8566E0C62ED12C6C
:1001300071EFE72E70E0F72E8E0120E030E0A9018C
:10014000892B09F03FC060E070E0CB010E94320DC6
:100150001E863EC08C859D850597D4F18E858823AB
:10016000B9F01E861D861C863AE0C32ED12C41EFC5
:10017000E42E40E0F42E8E0120E030E0A90160E0A2
:1001800070E0CB010E94320D56E0C52ED12C17C075
:1001900081E08E871D861C868AE0C82ED12C91EFC7
:1001A000E92E90E0F92E8E0120E030E0A90160E018
:1001B00070E0CB010E94320D29E0C22ED12C20E04C
:1001C00030E0A9016AE572E682E090E00E94320D1B
:1001D000DF91CF911F910F91FF90EF90DF90CF9023
:1001E0000895CF92DF92EF92FF920F931F93CF93D8
:1001F000C62FC62ED12C2EEDE22E22E0F22E8C013F
:1002000020E030E0A90160E070E0CB010E94320DF7
:10021000C093C600CF911F910F91FF90EF90DF9098
:10022000CF900895CF92DF92EF92FF920F931F939A
:10023000FC0161307105C9F48C014285538566ED7E
:1002400072E0848195810E94310EC12CD12C82E113
:10025000E82E81E0F82E20E030E0A9016AE572E6A0
:1002600082E090E00E94320D14C0672B91F4428529
:100270005385415051095387428766ED72E084816E
:1002800095811F910F91FF90EF90DF90CF900C948C
:10029000310E1F910F91FF90EF90DF90CF90089556
:1002A000CF92DF92EF92FF920F931F93CF93DF9342
:1002B000EC0160FF1DC0C12CD12CADE4EA2EA0E002
:1002C000FA2E8C0120E030E0A90160E070E0CB0163
:1002D0000E94320DC884D9848FEFC81AD80AD986F3
:1002E000C8860C811D81B6ECEB2EB2E0FB2E55C00A
:1002F00061FF35C088859985181619060CF098C0DD
:100300000197998788878A859B8501969B878A872D
:10031000C12CD12C6DE4E62E60E0F62E8E0120E09B
:1003200030E0A90160E070E0CB010E94320DCC24E6
:10033000C394D12CE2E1EE2EE1E0FE2E20E030E08D
:10034000A90160E070E0CB010E94320DC884D9841D
:100350000C811D81F6ECEF2EF2E0FF2E5CC062FFF7
:1003600025C0C12CD12C4DE4E42E40E0F42E8C01AC
:1003700020E030E0A90160E070E0CB010E94320D86
:10038000CE80DF808FEFC81AD80ADF82CE820C8140
:100390001D815EECE52E52E0F52E20E030E0A90153
:1003A00060E070E0CB010E94320D42C063FF40C0AC
:1003B0008E819F8118161906DCF501979F838E8325
:1003C0008A859B8501969B878A87C12CD12C8DE4D9
:1003D000E82E80E0F82E8E0120E030E0A90160E0F8
:1003E00070E0CB010E94320DCC24C394D12C22E1C9
:1003F000E22E21E0F22E20E030E0A90160E070E082
:10040000CB010E94320DCE80DF800C811D813EEC3D
:10041000E32E32E0F32E20E030E0A90160E070E04E
:10042000CB010E94320D8C859D8501969D878C871E
:10043000DF91CF911F910F91FF90EF90DF90CF90C0
:100440000895CF92DF92EF92FF920F931F93C09087
:10045000C600D12CFC010481158180E5E82E81E0E5
:10046000F82E20E030E0A90160E070E0CB010E94AE
:10047000320D1F910F91FF90EF90DF90CF90089574
:10048000CF93DF93CDB7DEB764970FB6F894DEBF96
:100490000FBECDBF94E1EDE1F1E0DE0111960190D8
:1004A0000D929A95E1F76630710580F5E82FF0E03E
:1004B000F097EE0FFF1F81E090E08C0F9D1FE80F7B
:1004C000F91F20813181FB01F595E795E451FF4F3C
:1004D000DB01A170BB2760FF02C04FE001C040EF0D
:1004E000BF016C5E7F4F822F8F7094E03695279509
:1004F0009A95E1F7109711F08295807F908194236F
:10050000892B808335966E177F0769F764960FB63F
:10051000F894DEBF0FBECDBFDF91CF9108958F92CB
:100520009F92AF92BF92CF92DF92EF92FF92CF93C2
:10053000DF934B015C01EA0124E630E040E050E04B
:100540000E94440F2AE0C22ED12CE12CF12CA701ED
:1005500096010E94440FBE0180E3820F0E94400278
:100560002196C501B401A70196010E94440F862F70
:10057000BE01805DDF91CF91FF90EF90DF90CF9033
:10058000BF90AF909F908F900C944002072E000C6C
:10059000880B990B44E050E00C948F02072E000C5E
:1005A000880B990B40E050E00C948F02072E000C52
:1005B000880B990B42E050E00C948F026A30710571
:1005C00021F481E08093EF0006C06930710531F4B9
:1005D0001092EF0081E08093FE000895663071056F
:1005E00029F481E08093EF001092FE00089580E8E6
:1005F0008093E4008FE08093E70087EB8093E50031
:1006000087E08093E60040E050E060E070E0CB01DE
:100610000E948F0242E050E060E070E0CB010E9457
:100620008F0244E050E060E070E0CB010C948F0258
:1006300080EC8CBB8DBB08951092C50083E3809342
:10064000C40088E98093C10086E08093C2000895C9
:100650000E94F7020E9418030E941C0348E061E216
:1006600072E080E091E00E940E0F40E050E066ED05
:1006700072E082E391E00C94280FCF93DF9300D0D7
:1006800000D0CDB7DEB7E9E1F2E029EF32E0CF01EB
:10069000409691838083FC0182179307C1F71092E3
:1006A000FA021092F902E4E6F1E081E891E0918328
:1006B00080838EE991E0968F858FABEBB1E0B3AF8D
:1006C000A2AF1D921C92FA83E9831C821B8289814E
:1006D0009A8106960E94850F8B819C818B599C4F35
:1006E000E981FA81978B868B918F808F8BEA9EE0D0
:1006F000948F838F158214827D96FA83E983EB8130
:10070000FC81E05AFF4FFC83EB83E038F140F9F6BF
:10071000ECEFF1E0118210821582148213821282B2
:10072000E1E6F0E080E8808310821092850010926C
:10073000840084E08093810081E080936F000F90BB
:100740000F900F900F90DF91CF910895CF93DF938B
:1007500000D0CDB7DEB79A8389838091150190913F
:10076000160106960E94850F892B59F489819A817A
:10077000909316018093150161E070E006960E9447
:10078000A50F0F900F90DF91CF9108950F931F93B6
:10079000CF93DF93C0913E01D0913F01209791F11B
:1007A0008091190190911A01009761F1E091170170
:1007B000F0911801A281B381109781F04E815F8181
:1007C0006885798516960D911D912D913C9119970B
:1007D000401B510B620B730B77FF14C0DC012D9192
:1007E0003C91119730931A0120931901ED93FC93DA
:1007F0009093180180931701DF91CF911F910F9172
:100800000C94A603DF91CF911F910F9108951F9231
:100810000F920FB60F9211240F931F932F933F93B4
:100820004F935F936F937F938F939F93AF93BF93F8
:10083000EF93FF93809136019091370100918400EE
:1008400010918500AC01092E000C660B770BBA01E4
:100850005527442720E030E0402B512B622B732B8F
:10086000409338015093390160933A0170933B01F2
:10087000B09B1AC040918400509185000196092ECA
:10088000000CAA0BBB0BDC019927882760E070E005
:10089000842B952BA62BB72B80933801909339018D
:1008A000A0933A01B0933B01E091D801F091D901B6
:1008B000309739F060E070E0809140019091410103
:1008C00009950E94C603FF91EF91BF91AF919F914F
:1008D0008F917F916F915F914F913F912F911F91D8
:1008E0000F910F900FBE0F901F9018951F920F92AF
:1008F0000FB60F9211240F931F932F933F934F9393
:100900005F936F937F938F939F93AF93BF93EF9377
:10091000FF938091360190913701009184001091EE
:100920008500AC01092E000C660B770BBA01552728
:10093000442720E030E0402B512B622B732B409357
:1009400038015093390160933A0170933B01B09B99
:100950001AC040918400509185000196092E000C28
:10096000AA0BBB0BDC019927882760E070E0842B81
:10097000952BA62BB72B8093380190933901A09328
:100980003A01B0933B01E091DA01F091DB0130973D
:1009900039F061E070E08091420190914301099546
:1009A0000E94C603FF91EF91BF91AF919F918F91EC
:1009B0007F916F915F914F913F912F911F910F9177
:1009C0000F900FBE0F901F9018951F920F920FB6A9
:1009D0000F9211240F931F932F933F934F935F9385
:1009E0006F937F938F939F93AF93BF93EF93FF93F7
:1009F000809136019091370100918400109185001B
:100A0000AC01092E000C660B770BBA015527442761
:100A100020E030E0402B512B622B732B40933801A8
:100A20005093390160933A0170933B01B09B1AC017
:100A300040918400509185000196092E000CAA0B6C
:100A4000BB0BDC019927882760E070E0842B952B95
:100A5000A62BB72B8093380190933901A0933A01CC
:100A6000B0933B01E091DC01F091DD01309739F06A
:100A700062E070E0809144019091450109950E94E7
:100A8000C603FF91EF91BF91AF919F918F917F919D
:100A90006F915F914F913F912F911F910F910F9007
:100AA0000FBE0F901F9018951F920F920FB60F92C6
:100AB00011240F931F932F933F934F935F936F9343
:100AC0007F938F939F93AF93BF93EF93FF93809107
:100AD0003601909137010091840010918500AC019E
:100AE000092E000C660B770BBA015527442720E02E
:100AF00030E0402B512B622B732B409338015093E5
:100B0000390160933A0170933B01B09B1AC0409148
:100B10008400509185000196092E000CAA0BBB0B96
:100B2000DC019927882760E070E0842B952BA62BA9
:100B3000B72B8093380190933901A0933A01B09379
:100B40003B01E091DE01F091DF01309739F063E085
:100B500070E0809146019091470109950E94C6037B
:100B6000FF91EF91BF91AF919F918F917F916F9185
:100B70005F914F913F912F911F910F910F900FBE59
:100B80000F901F9018951F920F920FB60F9211247D
:100B90000F931F932F933F934F935F936F937F9385
:100BA0008F939F93AF93BF93EF93FF938091360101
:100BB000909137010091840010918500AC01092EBD
:100BC000000C660B770BBA015527442720E030E074
:100BD000402B512B622B732B4093380150933901DA
:100BE00060933A0170933B01B09B1AC0409184001E
:100BF000509185000196092E000CAA0BBB0BDC015D
:100C00009927882760E070E0842B952BA62BB72BC3
:100C10008093380190933901A0933A01B0933B013E
:100C2000E091E001F091E101309739F064E070E08B
:100C3000809148019091490109950E94C603FF9156
:100C4000EF91BF91AF919F918F917F916F915F9144
:100C50004F913F912F911F910F910F900FBE0F90C9
:100C60001F9018951F920F920FB60F9211240F9399
:100C70001F932F933F934F935F936F937F938F9324
:100C80009F93AF93BF93EF93FF9380913601909121
:100C900037010091840010918500AC01092E000CF1
:100CA000660B770BBA015527442720E030E0402B34
:100CB000512B622B732B4093380150933901609371
:100CC0003A0170933B01B09B1AC04091840050914F
:100CD00085000196092E000CAA0BBB0BDC0199279D
:100CE000882760E070E0842B952BA62BB72B809390
:100CF000380190933901A0933A01B0933B01E09100
:100D0000E201F091E301309739F065E070E0809105
:100D10004A0190914B0109950E94C603FF91EF9102
:100D2000BF91AF919F918F917F916F915F914F9103
:100D30003F912F911F910F910F900FBE0F901F9019
:100D400018951F920F920FB60F9211240F931F93B5
:100D50002F933F934F935F936F937F938F939F93C3
:100D6000AF93BF93EF93FF9380913601909137013A
:100D70000091840010918500AC01092E000C660BD7
:100D8000770BBA015527442720E030E0402B512B48
:100D9000622B732B409338015093390160933A01D1
:100DA00070933B01B09B1AC0409184005091850024
:100DB0000196092E000CAA0BBB0BDC019927882792
:100DC00060E070E0842B952BA62BB72B8093380125
:100DD00090933901A0933A01B0933B01E091E40173
:100DE000F091E501309739F066E070E080914C01B8
:100DF00090914D0109950E94C603FF91EF91BF911B
:100E0000AF919F918F917F916F915F914F913F91A2
:100E10002F911F910F910F900FBE0F901F9018955B
:100E20001F920F920FB60F9211240F931F932F93BF
:100E30003F934F935F936F937F938F939F93AF9362
:100E4000BF93EF93FF93809136019091370100910A
:100E5000840010918500AC01092E000C660B770B05
:100E6000BA015527442720E030E0402B512B622B5C
:100E7000732B409338015093390160933A0170937A
:100E80003B01B09B1AC040918400509185000196AF
:100E9000092E000CAA0BBB0BDC019927882760E008
:100EA00070E0842B952BA62BB72B80933801909361
:100EB0003901A0933A01B0933B01E091E601F09132
:100EC000E701309739F067E070E080914E01909132
:100ED0004F0109950E94C603FF91EF91BF91AF9119
:100EE0009F918F917F916F915F914F913F912F9142
:100EF0001F910F910F900FBE0F901F9018951F928A
:100F00000F920FB60F9211240F931F932F933F93BD
:100F10004F935F936F937F938F939F93AF93BF9301
:100F2000EF93FF93809136019091370100918400F7
:100F300010918500AC01092E000C660B770BBA01ED
:100F40005527442720E030E0402B512B622B732B98
:100F5000409338015093390160933A0170933B01FB
:100F6000B09B1AC040918400509185000196092ED3
:100F7000000CAA0BBB0BDC019927882760E070E00E
:100F8000842B952BA62BB72B809338019093390196
:100F9000A0933A01B0933B01E091E801F091E9019F
:100FA000309739F068E070E08091500190915101E4
:100FB00009950E94C603FF91EF91BF91AF919F9158
:100FC0008F917F916F915F914F913F912F911F91E1
:100FD0000F910F900FBE0F901F9018951F920F92B8
:100FE0000FB60F9211240F931F932F933F934F939C
:100FF0005F936F937F938F939F93AF93BF93EF9381
:10100000FF938091360190913701009184001091F7
:101010008500AC01092E000C660B770BBA01552731
:10102000442720E030E0402B512B622B732B409360
:1010300038015093390160933A0170933B01B09BA2
:101040001AC040918400509185000196092E000C31
:10105000AA0BBB0BDC019927882760E070E0842B8A
:10106000952BA62BB72B8093380190933901A09331
:101070003A01B0933B01E091EA01F091EB01309726
:1010800039F069E070E08091520190915301099527
:101090000E94C603FF91EF91BF91AF919F918F91F5
:1010A0007F916F915F914F913F912F911F910F9180
:1010B0000F900FBE0F901F9018951F920F920FB6B2
:1010C0000F9211240F931F932F933F934F935F938E
:1010D0006F937F938F939F93AF93BF93EF93FF9300
:1010E0008091360190913701009184001091850024
:1010F000AC01092E000C660B770BBA01552744276B
:1011000020E030E0402B512B622B732B40933801B1
:101110005093390160933A0170933B01B09B1AC020
:1011200040918400509185000196092E000CAA0B75
:10113000BB0BDC019927882760E070E0842B952B9E
:10114000A62BB72B8093380190933901A0933A01D5
:10115000B0933B01E091EC01F091ED01309739F053
:101160006AE070E0809154019091550109950E94C8
:10117000C603FF91EF91BF91AF919F918F917F91A6
:101180006F915F914F913F912F911F910F910F9010
:101190000FBE0F901F9018951F920F920FB60F92CF
:1011A00011240F931F932F933F934F935F936F934C
:1011B0007F938F939F93AF93BF93EF93FF93809110
:1011C0003601909137010091840010918500AC01A7
:1011D000092E000C660B770BBA015527442720E037
:1011E00030E0402B512B622B732B409338015093EE
:1011F000390160933A0170933B01B09B1AC0409152
:101200008400509185000196092E000CAA0BBB0B9F
:10121000DC019927882760E070E0842B952BA62BB2
:10122000B72B8093380190933901A0933A01B09382
:101230003B01E091EE01F091EF01309739F06BE066
:1012400070E0809156019091570109950E94C60364
:10125000FF91EF91BF91AF919F918F917F916F918E
:101260005F914F913F912F911F910F910F900FBE62
:101270000F901F9018951F920F920FB60F92112486
:101280000F931F932F933F934F935F936F937F938E
:101290008F939F93AF93BF93EF93FF93809136010A
:1012A000909137010091840010918500AC01092EC6
:1012B000000C660B770BBA015527442720E030E07D
:1012C000402B512B622B732B4093380150933901E3
:1012D00060933A0170933B01B09B1AC04091840027
:1012E000509185000196092E000CAA0BBB0BDC0166
:1012F0009927882760E070E0842B952BA62BB72BCD
:101300008093380190933901A0933A01B0933B0147
:10131000E091F001F091F101309739F06CE070E06C
:10132000809158019091590109950E94C603FF913F
:10133000EF91BF91AF919F918F917F916F915F914D
:101340004F913F912F911F910F910F900FBE0F90D2
:101350001F9018951F920F920FB60F9211240F93A2
:101360001F932F933F934F935F936F937F938F932D
:101370009F93AF93BF93EF93FF938091360190912A
:1013800037010091840010918500AC01092E000CFA
:10139000660B770BBA015527442720E030E0402B3D
:1013A000512B622B732B409338015093390160937A
:1013B0003A0170933B01B09B1AC040918400509158
:1013C00085000196092E000CAA0BBB0BDC019927A6
:1013D000882760E070E0842B952BA62BB72B809399
:1013E000380190933901A0933A01B0933B01E09109
:1013F000F201F091F301309739F06DE070E08091E7
:101400005A0190915B0109950E94C603FF91EF91EB
:10141000BF91AF919F918F917F916F915F914F910C
:101420003F912F911F910F910F900FBE0F901F9022
:1014300018951F920F920FB60F9211240F931F93BE
:101440002F933F934F935F936F937F938F939F93CC
:10145000AF93BF93EF93FF93809136019091370143
:101460000091840010918500AC01092E000C660BE0
:10147000770BBA015527442720E030E0402B512B51
:10148000622B732B409338015093390160933A01DA
:1014900070933B01B09B1AC040918400509185002D
:1014A0000196092E000CAA0BBB0BDC01992788279B
:1014B00060E070E0842B952BA62BB72B809338012E
:1014C00090933901A0933A01B0933B01E091F4016C
:1014D000F091F501309739F06EE070E080915C0199
:1014E00090915D0109950E94C603FF91EF91BF9114
:1014F000AF919F918F917F916F915F914F913F91AC
:101500002F911F910F910F900FBE0F901F90189564
:101510001F920F920FB60F9211240F931F932F93C8
:101520003F934F935F936F937F938F939F93AF936B
:10153000BF93EF93FF938091360190913701009113
:10154000840010918500AC01092E000C660B770B0E
:10155000BA015527442720E030E0402B512B622B65
:10156000732B409338015093390160933A01709383
:101570003B01B09B1AC040918400509185000196B8
:10158000092E000CAA0BBB0BDC019927882760E011
:1015900070E0842B952BA62BB72B8093380190936A
:1015A0003901A0933A01B0933B01E091F601F0912B
:1015B000F701309739F06FE070E080915E01909113
:1015C0005F0109950E94C603FF91EF91BF91AF9112
:1015D0009F918F917F916F915F914F913F912F914B
:1015E0001F910F910F900FBE0F901F9018951F9293
:1015F0000F920FB60F9211240F931F932F933F93C7
:101600004F935F936F937F938F939F93AF93BF930A
:10161000EF93FF9380913601909137010091840000
:1016200010918500AC01092E000C660B770BBA01F6
:101630005527442720E030E0402B512B622B732BA1
:10164000409338015093390160933A0170933B0104
:10165000B09B1AC040918400509185000196092EDC
:10166000000CAA0BBB0BDC019927882760E070E017
:10167000842B952BA62BB72B80933801909339019F
:10168000A0933A01B0933B01E091F801F091F90188
:10169000309739F060E170E08091600190916101D4
:1016A00009950E94C603FF91EF91BF91AF919F9161
:1016B0008F917F916F915F914F913F912F911F91EA
:1016C0000F910F900FBE0F901F9018951F920F92C1
:1016D0000FB60F9211240F931F932F933F934F93A5
:1016E0005F936F937F938F939F93AF93BF93EF938A
:1016F000FF93809136019091370100918400109101
:101700008500AC01092E000C660B770BBA0155273A
:10171000442720E030E0402B512B622B732B409369
:1017200038015093390160933A0170933B01B09BAB
:101730001AC040918400509185000196092E000C3A
:10174000AA0BBB0BDC019927882760E070E0842B93
:10175000952BA62BB72B8093380190933901A0933A
:101760003A01B0933B01E091FA01F091FB0130970F
:1017700039F061E170E08091620190916301099517
:101780000E94C603FF91EF91BF91AF919F918F91FE
:101790007F916F915F914F913F912F911F910F9189
:1017A0000F900FBE0F901F901895CF92DF92EF927F
:1017B000FF920F931F93CF93DF93DB01ED91FC9189
:1017C000A0E0B0E0309799F0C680D780E084F18443
:1017D000EC010E811F81288539850C151D052E050C
:1017E0003F052CF0DF010190F081E02DEBCFEC0103
:1017F000F983E883109721F4FB019183808302C071
:101800008D939C93DF91CF911F910F91FF90EF905B
:10181000DF90CF900895CF92DF92EF92FF920F93D7
:101820001F93CF93DF93DB01ED91FC91A0E0B0E03B
:10183000309799F0C280D380E480F580EC010A8172
:101840001B812C813D810C151D052E053F052CF0BB
:10185000DF010190F081E02DEBCFEC01F983E8830B
:10186000109721F4FB019183808302C08D939C9398
:10187000DF91CF911F910F91FF90EF90DF90CF906C
:101880000895DC01ED91FC911197309759F48FEF99
:101890008093EC008093ED008093EE0081E083BFA5
:1018A0008895FDCF208131812D933C93CF01089500
:1018B0001F920F920FB60F9211242F933F934F93C5
:1018C0005F938F939F93AF93BF93EF93FF93209179
:1018D0003601309137012F5F3F4F3093370120930E
:1018E0003601E0913C01F0913D013097F1F08281A9
:1018F0009381A481B5812A173B07B9F49C014091DB
:10190000840050918500841B950B019731F4209140
:101910008400309185002F5F3F4F309389002093E2
:10192000880080916F00826003C080916F008D7F7E
:1019300080936F00FF91EF91BF91AF919F918F9135
:101940005F914F913F912F910F900FBE0F901F907D
:1019500018951F920F920FB60F921124CF92DF921B
:10196000EF92FF922F933F934F935F936F937F93E9
:101970008F939F93AF93BF93EF93FF938091360123
:1019800090913701C0908400D0908500B09B05C035
:10199000C0908400D09085000196092E000CAA0BFF
:1019A000BB0BDC0199278827E12CF12CC82AD92A06
:1019B000EA2AFB2AE0913C01F0913D013097F9F0D1
:1019C00082819381A481B581AC01BD014C195D096F
:1019D0006E097F0914161506160617064CF08CE3DF
:1019E00091E00E94410C6EE371E00E94D50BE2CFC2
:1019F00020913601309137012A173B07E1F08091A1
:101A00006F008D7F80936F000E94C603FF91EF915E
:101A1000BF91AF919F918F917F916F915F914F9106
:101A20003F912F91FF90EF90DF90CF900F900FBEDE
:101A30000F901F9018959C01409184005091850053
:101A4000841B950B019731F420918400309185001F
:101A50002F5F3F4F309389002093880080916F0063
:101A60008260D0CF3F924F925F926F927F928F921F
:101A70009F92AF92BF92CF92DF92EF92FF920F931D
:101A80001F93CF93DF932B013C0149015A018FB77C
:101A90008078382EF8948BE191E00E94410CEC01A3
:101AA0001B870A87FD86EC86DF86CE86332061F0B1
:101AB000E0911501F09116010280F381E02D828101
:101AC0009381A481B58108C080913801909139013A
:101AD000A0913A01B0913B01480E591E6A1E7B1E2F
:101AE0004A825B826C827D82181419041A041B04DA
:101AF00034F088248A94982CA82C5FE7B52E840CA7
:101B0000951CA61CB71C8E829F82A886B9868091E0
:101B10003601909137012091840030918500B09B6F
:101B200005C020918400309185000196092E000C9B
:101B3000AA0BBB0BDC0199278827A90160E070E0A4
:101B4000842B952BA62BB72B481A590A6A0A7B0AB5
:101B50001414150416041704ACF56CE371E0CE01FF
:101B60000E940B0CE0913C01F0913D01309711F186
:101B700082819381A481B581209136013091370112
:101B80002A173B07B9F49C014091840050918500CD
:101B9000841B950B019731F42091840030918500CE
:101BA0002F5F3F4F309389002093880080916F0012
:101BB000826003C080916F008D7F80936F00311031
:101BC0003CC03CC06EE371E0CE010E94D50B3320D7
:101BD000A9F18091190190911A01009771F1E0919A
:101BE0001701F091180120913E0130913F010281CF
:101BF0001381D90116964D915D916D917C91199744
:101C0000D80116960D911D912D913C911997401B6D
:101C1000510B620B730B77FF10C0DC012D913C91CF
:101C2000119730931A0120931901ED93FC9390932F
:101C30001801809317010E94A6037894CE01DF91CA
:101C4000CF911F910F91FF90EF90DF90CF90BF90B9
:101C5000AF909F908F907F906F905F904F903F904C
:101C60000895CF92DF92FF920F931F93CF93DF934C
:101C7000EC018B016A018FB78078F82EF894888187
:101C800099810097A1F1DC011496ED91FC911597D3
:101C9000309719F080819181F6CFE0911501F09194
:101CA00016018E179F0721F0FF2009F448C005C0D8
:101CB000FF2009F444C0789442C0AA81BB811097E8
:101CC00021F015961C921E921497FB83EA83D5830C
:101CD000C4830E94A603E0911501F0911601828150
:101CE0009381892B21F4789480E090E02CC080913E
:101CF00015019091160199838883FF2029F08A812C
:101D00009B81019709F07894B601CE01F8010995FD
:101D10008C018FB7F894198218828A819B81823056
:101D2000910548F01B821A82DC0115961C921E92C6
:101D300014970E94A603FF2029F0789403C08FEF28
:101D40009FEF01C0C801DF91CF911F910F91FF90CC
:101D5000DF90CF90089500911501109116018EE348
:101D600091E00E94410CEC01D80113969C938E9354
:101D7000129778944E855F856C857D858A859B85D5
:101D80000E94310E8FB7F89480911B0190911C0135
:101D900099838883D0931C01C0931B01E0911701A4
:101DA000F091180180819181EC01AA81BB81C091E1
:101DB0003E01D0913F012097B1F0109761F24E8122
:101DC0005F816885798516960D911D912D913C91C5
:101DD0001997401B510B620B730B14161506160650
:101DE00017060CF0B8CF909318018093170120913B
:101DF000190130911A0131832083F0931A01E09385
:101E00001901DC011496ED91FC911597309719F0AA
:101E100080819181F6CF0E94A6039DCF4231B8F414
:101E20002FB7F89450E0440F551FFA01E05CFE4FC5
:101E300091838083FA01E852FE4F7183608341E011
:101E400050E0FC015383428327FF01C0789408953A
:101E50008C017B016A018FB7F8940E943D0378944E
:101E6000E114F10441F020E030E0A90160E070E00D
:101E7000CB010E94320D8FB7F8940E94C60378946C
:101E800081E083BF8895FDCF052E97FB1EF400945B
:101E90000E945B0F57FD07D00E94630F07FC03D021
:101EA0004EF40C945B0F50954095309521953F4F23
:101EB0004F4F5F4F089590958095709561957F4F36
:101EC0008F4F9F4F0895A1E21A2EAA1BBB1BFD0145
:101ED0000DC0AA1FBB1FEE1FFF1FA217B307E40709
:101EE000F50720F0A21BB30BE40BF50B661F771F61
:101EF000881F991F1A9469F7609570958095909541
:101F00009B01AC01BD01CF010895DC012D923D92F2
:101F10004D925D926D927D928D929D92AD92BD9209
:101F2000CD92DD92ED92FD920D931D93CD93DD93B5
:101F3000FF91EF918DB78D938EB78D938FB78D9362
:101F4000ED93FD93882799270994DC01CB0181301B
:101F50009105811D2D903D904D905D906D907D90EF
:101F60008D909D90AD90BD90CD90DD90ED90FD90C9
:101F70000D911D91CD91DD91ED91FD910D90F89414
:101F8000FEBF0FBEEDBFED91FD910994F894FFCF18
:101F90000000000006010000000032010000000007
:101FA0000000000000FC01FC016401190251151041
:101FB00001111E111B500B411B411F1101511F51DB
:021FC0000B0014
:00000001FF
