:100000000C942E000C94A0030C940C040C94780413
:100010000C94E4040C9450050C944B000C94270CA5
:100020000C944B000C94D50B0C94BC050C94280636
:100030000C9494060C9400070C946C070C94D8074D
:100040000C9444080C94B0080C941C090C94880976
:100050000C94F4090C94600A0C94CC0A11241FBE71
:10006000CFEFD4E0DEBFCDBF11E0A0E0B1E0E4E42B
:10007000FFE102C005900D92A233B107D9F724E049
:10008000A2E3B1E001C01D92A938B207E1F70E94D6
:10009000C4020C94A00F0C940000CF92DF92EF9258
:1000A000FF920F931F93CF93DF93EC01888599857F
:1000B000009709F086C08E819F81892B81F50F2ED4
:1000C000FAE0CF2ED12CF02D0F2EFFEEEF2EF0E028
:1000D000FF2EF02D8E0120E030E0A90160E070E0FD
:1000E000CB010E94DC0C1D861C8670C08E819F8116
:1000F000892B79F50F2EF9E0CF2ED12CF02D0F2E74
:10010000FFEEEF2EF0E0FF2EF02D8E0120E030E02C
:10011000A90160E070E0CB010E94DC0C57C08E8129
:100120009F8118161906ACF40F2EF6E0CF2ED12CB5
:10013000F02D0F2EFFEEEF2EF0E0FF2EF02D8E01B2
:1001400020E030E0A90160E070E0CB010E94DC0C0F
:100150003DC08C859D850597CCF18E858823C1F0A7
:100160001E860F2EF6E0CF2ED12CF02D0F2EFFEE97
:10017000EF2EF0E0FF2EF02D8E0120E030E0A901FF
:1001800060E070E0CB010E94DC0C1D861C861EC066
:1001900081E08E870F2EF9E0CF2ED12CF02D0F2E7F
:1001A000FFEEEF2EF0E0FF2EF02D8E0120E030E08C
:1001B000A90160E070E0CB010E94DC0C1D861C866A
:1001C00005C0181619060CF491CFC3CFDF91CF915B
:1001D0001F910F91FF90EF90DF90CF900895CF92F5
:1001E000DF92EF92FF920F931F93CF93C62FC62EED
:1001F000D12CFC01048115810F2EF5E9EF2EF2E0E0
:10020000FF2EF02D20E030E0A90160E070E0CB018E
:100210000E94DC0CC093C600CF911F910F91FF90FC
:10022000EF90DF90CF900895CF92DF92EF92FF9200
:100230000F931F9361307105C9F48C01FC01828515
:100240009385019693878287C12CD12C0F2EF4E1E0
:10025000EF2EF1E0FF2EF02D20E030E0A9016CE957
:1002600070E080E090E00E94DC0C09C0672B39F45C
:10027000FC012285338521503109338722871F9164
:100280000F91FF90EF90DF90CF900895CF92DF9283
:10029000EF92FF920F931F93CF93DF93EC0160FFD8
:1002A00017C0C12CD12C0F2EFDE4EF2EF0E0FF2E55
:1002B000F02D8C0120E030E0A90160E070E0CB017E
:1002C0000E94DC0C888599850196998788877DC076
:1002D00061FF31C088859985181619060CF075C024
:1002E000019799878887C12CD12C0F2EFDE4EF2E22
:1002F000F0E0FF2EF02D8E0120E030E0A90160E05B
:1003000070E0CB010E94DC0CCC24C394D12C0F2EC6
:10031000F4E1EF2EF1E0FF2EF02D20E030E0A90116
:1003200060E070E0CB010E94DC0C8C859D8501961D
:100330009D878C874AC062FF17C0C12CD12C0F2E1D
:10034000FDE4EF2EF0E0FF2EF02D8C0120E030E0F8
:10035000A90160E070E0CB010E94DC0C8E819F81DE
:1003600001969F838E8331C063FF2FC08E819F8152
:100370001816190654F501979F838E83C12CD12C32
:100380000F2EFDE4EF2EF0E0FF2EF02D8E0120E089
:1003900030E0A90160E070E0CB010E94DC0CCC24CD
:1003A000C394D12C0F2EF4E1EF2EF1E0FF2EF02DAF
:1003B00020E030E0A90160E070E0CB010E94DC0C9D
:1003C0008C859D8501969D878C87DF91CF911F91AC
:1003D0000F91FF90EF90DF90CF900895CF92DF9232
:1003E000EF92FF920F931F93C090C600D12CFC0197
:1003F000048115810F2EF6E4EF2EF1E0FF2EF02D93
:1004000020E030E0A90160E070E0CB010E94DC0C4C
:100410001F910F91FF90EF90DF90CF900895CF93B1
:10042000DF93CDB7DEB764970FB6F894DEBF0FBE8B
:10043000CDBF94E1EDE1F1E0DE01119601900D9266
:100440009A95E1F76630710568F5E82FF0E0F097CE
:10045000EE0FFF1FEC0FFD1F21813281FB01F5958F
:10046000E795E451FF4FDB01A170BB2760FF02C09D
:100470006FE001C060EFAF014C5E5F4F822F8F7065
:10048000329522952F7023273F702327109711F064
:100490008295807F90819623892B808335964E1795
:1004A0005F0761F764960FB6F894DEBF0FBECDBF4D
:1004B000DF91CF9108958F929F92AF92BF92CF928A
:1004C000DF92EF92FF92CF93DF934B015C01EA0141
:1004D00024E630E040E050E00E941E0F0F2EFAE0CC
:1004E000CF2ED12CE12CF12CF02DA70196010E94EA
:1004F0001E0FBE0180E3820F0E940F022196C501EC
:10050000B401A70196010E941E0F862FBE01805DD7
:100510000E940F02DF91CF91FF90EF90DF90CF907C
:10052000BF90AF909F908F900895072E000C880B7E
:10053000990B44E050E00E945B020895072E000CE6
:10054000880B990B42E050E00E945B02089580E81E
:100550008093E4008FE08093E70087EB8093E500D1
:1005600087E08093E600089580EC8CBB8DBB0895F6
:100570001092C50083E38093C40088E98093C10092
:1005800086E08093C20008950E94A7020E94B402F0
:100590000E94B80248E06EEE71E080E091E00E94B7
:1005A000E80E40E050E06EE972E082E391E00E94E4
:1005B000020F0895CF93DF9300D000D0CDB7DEB700
:1005C00089E292E029E033E0FC0170979183808317
:1005D000409682179307C1F71092FA021092F9021F
:1005E000E4E6F1E081E891E0918380838EE991E097
:1005F000968F858FABEBB1E0B3AFA2AF1D921C928B
:10060000FA83E983E5E6F3E0FC83EB8389819A8151
:1006100006960E945F0F8B819C81E981FA81978BFE
:10062000868B918F808F8AE79EE0948F838F1582CF
:1006300014827D96FA83E983EB81FC81E05AFF4FB7
:10064000FC83EB8389819A81885D9140F9F6ECEF18
:10065000F1E0118210821582148213821282E1E687
:10066000F0E080E880831082109285001092840070
:1006700084E08093810081E080936F000F900F9061
:100680000F900F90DF91CF910895CF93DF9300D01B
:10069000CDB7DEB79A8389838091150190911601B9
:1006A00006960E945F0F892B59F489819A81909355
:1006B00016018093150161E070E006960E947F0F9D
:1006C0000F900F90DF91CF9108950F931F93CF93C9
:1006D000DF93E0913E01F0913F01309761F180910D
:1006E000190190911A01009731F1C0911701D09131
:1006F0001801AA81BB81109779F0468157816085E6
:10070000718516960D911D912D913C911997401B65
:10071000510B620B730B7AF4FC0120813181309311
:100720001A0120931901D183C083909318018093FB
:1007300017010E944503DF91CF911F910F910895FA
:100740001F920F920FB60F9211242F933F934F9346
:100750005F936F937F938F939F93AF93BF93EF9329
:10076000FF932091360130913701409184005091E0
:100770008500C901032E000CAA0BBB0BDC019927D5
:10078000882760E070E0842B952BA62BB72B8093F5
:10079000380190933901A0933A01B0933B01B09B8B
:1007A0001BC04091840050918500C9010196092E1B
:1007B000000CAA0BBB0BDC019927882760E070E0D6
:1007C000842B952BA62BB72B80933801909339015E
:1007D000A0933A01B0933B01E091D801F091D90187
:1007E000309739F060E070E08091400190914101D4
:1007F00009950E946503FF91EF91BF91AF919F9181
:100800008F917F916F915F914F913F912F910F90B9
:100810000FBE0F901F9018951F920F920FB60F9258
:1008200011242F933F934F935F936F937F938F93F5
:100830009F93AF93BF93EF93FF9320913601309135
:1008400037014091840050918500C901032E000CAE
:10085000AA0BBB0BDC019927882760E070E0842B92
:10086000952BA62BB72B8093380190933901A09339
:100870003A01B0933B01B09B1BC040918400509162
:100880008500C9010196092E000CAA0BBB0BDC01E7
:100890009927882760E070E0842B952BA62BB72B37
:1008A0008093380190933901A0933A01B0933B01B2
:1008B000E091DA01F091DB01309739F061E070E00E
:1008C000809142019091430109950E946503FF9137
:1008D000EF91BF91AF919F918F917F916F915F91B8
:1008E0004F913F912F910F900FBE0F901F90189531
:1008F0001F920F920FB60F9211242F933F934F9395
:100900005F936F937F938F939F93AF93BF93EF9377
:10091000FF9320913601309137014091840050912E
:100920008500C901032E000CAA0BBB0BDC01992723
:10093000882760E070E0842B952BA62BB72B809343
:10094000380190933901A0933A01B0933B01B09BD9
:100950001BC04091840050918500C9010196092E69
:10096000000CAA0BBB0BDC019927882760E070E024
:10097000842B952BA62BB72B8093380190933901AC
:10098000A0933A01B0933B01E091DC01F091DD01CD
:10099000309739F062E070E0809144019091450118
:1009A00009950E946503FF91EF91BF91AF919F91CF
:1009B0008F917F916F915F914F913F912F910F9008
:1009C0000FBE0F901F9018951F920F920FB60F92A7
:1009D00011242F933F934F935F936F937F938F9344
:1009E0009F93AF93BF93EF93FF9320913601309184
:1009F00037014091840050918500C901032E000CFD
:100A0000AA0BBB0BDC019927882760E070E0842BE0
:100A1000952BA62BB72B8093380190933901A09387
:100A20003A01B0933B01B09B1BC0409184005091B0
:100A30008500C9010196092E000CAA0BBB0BDC0135
:100A40009927882760E070E0842B952BA62BB72B85
:100A50008093380190933901A0933A01B0933B0100
:100A6000E091DE01F091DF01309739F063E070E052
:100A7000809146019091470109950E946503FF917D
:100A8000EF91BF91AF919F918F917F916F915F9106
:100A90004F913F912F910F900FBE0F901F9018957F
:100AA0001F920F920FB60F9211242F933F934F93E3
:100AB0005F936F937F938F939F93AF93BF93EF93C6
:100AC000FF9320913601309137014091840050917D
:100AD0008500C901032E000CAA0BBB0BDC01992772
:100AE000882760E070E0842B952BA62BB72B809392
:100AF000380190933901A0933A01B0933B01B09B28
:100B00001BC04091840050918500C9010196092EB7
:100B1000000CAA0BBB0BDC019927882760E070E072
:100B2000842B952BA62BB72B8093380190933901FA
:100B3000A0933A01B0933B01E091E001F091E10113
:100B4000309739F064E070E080914801909149015C
:100B500009950E946503FF91EF91BF91AF919F911D
:100B60008F917F916F915F914F913F912F910F9056
:100B70000FBE0F901F9018951F920F920FB60F92F5
:100B800011242F933F934F935F936F937F938F9392
:100B90009F93AF93BF93EF93FF93209136013091D2
:100BA00037014091840050918500C901032E000C4B
:100BB000AA0BBB0BDC019927882760E070E0842B2F
:100BC000952BA62BB72B8093380190933901A093D6
:100BD0003A01B0933B01B09B1BC0409184005091FF
:100BE0008500C9010196092E000CAA0BBB0BDC0184
:100BF0009927882760E070E0842B952BA62BB72BD4
:100C00008093380190933901A0933A01B0933B014E
:100C1000E091E201F091E301309739F065E070E096
:100C200080914A0190914B0109950E946503FF91C3
:100C3000EF91BF91AF919F918F917F916F915F9154
:100C40004F913F912F910F900FBE0F901F901895CD
:100C50001F920F920FB60F9211242F933F934F9331
:100C60005F936F937F938F939F93AF93BF93EF9314
:100C7000FF932091360130913701409184005091CB
:100C80008500C901032E000CAA0BBB0BDC019927C0
:100C9000882760E070E0842B952BA62BB72B8093E0
:100CA000380190933901A0933A01B0933B01B09B76
:100CB0001BC04091840050918500C9010196092E06
:100CC000000CAA0BBB0BDC019927882760E070E0C1
:100CD000842B952BA62BB72B809338019093390149
:100CE000A0933A01B0933B01E091E401F091E5015A
:100CF000309739F066E070E080914C0190914D01A1
:100D000009950E946503FF91EF91BF91AF919F916B
:100D10008F917F916F915F914F913F912F910F90A4
:100D20000FBE0F901F9018951F920F920FB60F9243
:100D300011242F933F934F935F936F937F938F93E0
:100D40009F93AF93BF93EF93FF9320913601309120
:100D500037014091840050918500C901032E000C99
:100D6000AA0BBB0BDC019927882760E070E0842B7D
:100D7000952BA62BB72B8093380190933901A09324
:100D80003A01B0933B01B09B1BC04091840050914D
:100D90008500C9010196092E000CAA0BBB0BDC01D2
:100DA0009927882760E070E0842B952BA62BB72B22
:100DB0008093380190933901A0933A01B0933B019D
:100DC000E091E601F091E701309739F067E070E0DB
:100DD00080914E0190914F0109950E946503FF910A
:100DE000EF91BF91AF919F918F917F916F915F91A3
:100DF0004F913F912F910F900FBE0F901F9018951C
:100E00001F920F920FB60F9211242F933F934F937F
:100E10005F936F937F938F939F93AF93BF93EF9362
:100E2000FF93209136013091370140918400509119
:100E30008500C901032E000CAA0BBB0BDC0199270E
:100E4000882760E070E0842B952BA62BB72B80932E
:100E5000380190933901A0933A01B0933B01B09BC4
:100E60001BC04091840050918500C9010196092E54
:100E7000000CAA0BBB0BDC019927882760E070E00F
:100E8000842B952BA62BB72B809338019093390197
:100E9000A0933A01B0933B01E091E801F091E901A0
:100EA000309739F068E070E08091500190915101E5
:100EB00009950E946503FF91EF91BF91AF919F91BA
:100EC0008F917F916F915F914F913F912F910F90F3
:100ED0000FBE0F901F9018951F920F920FB60F9292
:100EE00011242F933F934F935F936F937F938F932F
:100EF0009F93AF93BF93EF93FF932091360130916F
:100F000037014091840050918500C901032E000CE7
:100F1000AA0BBB0BDC019927882760E070E0842BCB
:100F2000952BA62BB72B8093380190933901A09372
:100F30003A01B0933B01B09B1BC04091840050919B
:100F40008500C9010196092E000CAA0BBB0BDC0120
:100F50009927882760E070E0842B952BA62BB72B70
:100F60008093380190933901A0933A01B0933B01EB
:100F7000E091EA01F091EB01309739F069E070E01F
:100F8000809152019091530109950E946503FF9150
:100F9000EF91BF91AF919F918F917F916F915F91F1
:100FA0004F913F912F910F900FBE0F901F9018956A
:100FB0001F920F920FB60F9211242F933F934F93CE
:100FC0005F936F937F938F939F93AF93BF93EF93B1
:100FD000FF93209136013091370140918400509168
:100FE0008500C901032E000CAA0BBB0BDC0199275D
:100FF000882760E070E0842B952BA62BB72B80937D
:10100000380190933901A0933A01B0933B01B09B12
:101010001BC04091840050918500C9010196092EA2
:10102000000CAA0BBB0BDC019927882760E070E05D
:10103000842B952BA62BB72B8093380190933901E5
:10104000A0933A01B0933B01E091EC01F091ED01E6
:10105000309739F06AE070E0809154019091550129
:1010600009950E946503FF91EF91BF91AF919F9108
:101070008F917F916F915F914F913F912F910F9041
:101080000FBE0F901F9018951F920F920FB60F92E0
:1010900011242F933F934F935F936F937F938F937D
:1010A0009F93AF93BF93EF93FF93209136013091BD
:1010B00037014091840050918500C901032E000C36
:1010C000AA0BBB0BDC019927882760E070E0842B1A
:1010D000952BA62BB72B8093380190933901A093C1
:1010E0003A01B0933B01B09B1BC0409184005091EA
:1010F0008500C9010196092E000CAA0BBB0BDC016F
:101100009927882760E070E0842B952BA62BB72BBE
:101110008093380190933901A0933A01B0933B0139
:10112000E091EE01F091EF01309739F06BE070E063
:10113000809156019091570109950E946503FF9196
:10114000EF91BF91AF919F918F917F916F915F913F
:101150004F913F912F910F900FBE0F901F901895B8
:101160001F920F920FB60F9211242F933F934F931C
:101170005F936F937F938F939F93AF93BF93EF93FF
:10118000FF932091360130913701409184005091B6
:101190008500C901032E000CAA0BBB0BDC019927AB
:1011A000882760E070E0842B952BA62BB72B8093CB
:1011B000380190933901A0933A01B0933B01B09B61
:1011C0001BC04091840050918500C9010196092EF1
:1011D000000CAA0BBB0BDC019927882760E070E0AC
:1011E000842B952BA62BB72B809338019093390134
:1011F000A0933A01B0933B01E091F001F091F1012D
:10120000309739F06CE070E080915801909159016D
:1012100009950E946503FF91EF91BF91AF919F9156
:101220008F917F916F915F914F913F912F910F908F
:101230000FBE0F901F9018951F920F920FB60F922E
:1012400011242F933F934F935F936F937F938F93CB
:101250009F93AF93BF93EF93FF932091360130910B
:1012600037014091840050918500C901032E000C84
:10127000AA0BBB0BDC019927882760E070E0842B68
:10128000952BA62BB72B8093380190933901A0930F
:101290003A01B0933B01B09B1BC040918400509138
:1012A0008500C9010196092E000CAA0BBB0BDC01BD
:1012B0009927882760E070E0842B952BA62BB72B0D
:1012C0008093380190933901A0933A01B0933B0188
:1012D000E091F201F091F301309739F06DE070E0A8
:1012E00080915A0190915B0109950E946503FF91DD
:1012F000EF91BF91AF919F918F917F916F915F918E
:101300004F913F912F910F900FBE0F901F90189506
:101310001F920F920FB60F9211242F933F934F936A
:101320005F936F937F938F939F93AF93BF93EF934D
:10133000FF93209136013091370140918400509104
:101340008500C901032E000CAA0BBB0BDC019927F9
:10135000882760E070E0842B952BA62BB72B809319
:10136000380190933901A0933A01B0933B01B09BAF
:101370001BC04091840050918500C9010196092E3F
:10138000000CAA0BBB0BDC019927882760E070E0FA
:10139000842B952BA62BB72B809338019093390182
:1013A000A0933A01B0933B01E091F401F091F50173
:1013B000309739F06EE070E080915C0190915D01B2
:1013C00009950E946503FF91EF91BF91AF919F91A5
:1013D0008F917F916F915F914F913F912F910F90DE
:1013E0000FBE0F901F9018951F920F920FB60F927D
:1013F00011242F933F934F935F936F937F938F931A
:101400009F93AF93BF93EF93FF9320913601309159
:1014100037014091840050918500C901032E000CD2
:10142000AA0BBB0BDC019927882760E070E0842BB6
:10143000952BA62BB72B8093380190933901A0935D
:101440003A01B0933B01B09B1BC040918400509186
:101450008500C9010196092E000CAA0BBB0BDC010B
:101460009927882760E070E0842B952BA62BB72B5B
:101470008093380190933901A0933A01B0933B01D6
:10148000E091F601F091F701309739F06FE070E0EC
:1014900080915E0190915F0109950E946503FF9123
:1014A000EF91BF91AF919F918F917F916F915F91DC
:1014B0004F913F912F910F900FBE0F901F90189555
:1014C0001F920F920FB60F9211242F933F934F93B9
:1014D0005F936F937F938F939F93AF93BF93EF939C
:1014E000FF93209136013091370140918400509153
:1014F0008500C901032E000CAA0BBB0BDC01992748
:10150000882760E070E0842B952BA62BB72B809367
:10151000380190933901A0933A01B0933B01B09BFD
:101520001BC04091840050918500C9010196092E8D
:10153000000CAA0BBB0BDC019927882760E070E048
:10154000842B952BA62BB72B8093380190933901D0
:10155000A0933A01B0933B01E091F801F091F901B9
:10156000309739F060E170E0809160019091610105
:1015700009950E946503FF91EF91BF91AF919F91F3
:101580008F917F916F915F914F913F912F910F902C
:101590000FBE0F901F9018951F920F920FB60F92CB
:1015A00011242F933F934F935F936F937F938F9368
:1015B0009F93AF93BF93EF93FF93209136013091A8
:1015C00037014091840050918500C901032E000C21
:1015D000AA0BBB0BDC019927882760E070E0842B05
:1015E000952BA62BB72B8093380190933901A093AC
:1015F0003A01B0933B01B09B1BC0409184005091D5
:101600008500C9010196092E000CAA0BBB0BDC0159
:101610009927882760E070E0842B952BA62BB72BA9
:101620008093380190933901A0933A01B0933B0124
:10163000E091FA01F091FB01309739F061E170E03F
:10164000809162019091630109950E946503FF9169
:10165000EF91BF91AF919F918F917F916F915F912A
:101660004F913F912F910F900FBE0F901F901895A3
:10167000EF92FF920F931F93CF93DF937B01EB01C8
:10168000A881B981109761F1FC010681178120853D
:10169000318516964D915D916D917C911997041746
:1016A00015072607370714F41BC0DF01ED91FC91E5
:1016B0001197309749F046815781608571850417ED
:1016C0001507260737078CF7EC01F983E883109795
:1016D00021F4F7019183808307C08D939C9304C00C
:1016E000EC01B983A883F5CFDF91CF911F910F91C2
:1016F000FF90EF900895EF92FF920F931F93CF9377
:10170000DF937B01EB01A881B981109761F1FC01A6
:10171000028113812481358112964D915D916D91E5
:101720007C911597041715072607370714F41BC07B
:10173000DF01ED91FC911197309749F0428153817F
:101740006481758104171507260737078CF7EC01AC
:10175000F983E883109721F4F7019183808307C010
:101760008D939C9304C0EC01B983A883F5CFDF91DE
:10177000CF911F910F91FF90EF900895DC01ED91B3
:10178000FC911197309759F48FEF8093EC00809380
:10179000ED008093EE0081E083BF8895FDCF20812E
:1017A00031812D933C93CF0108951F920F920FB674
:1017B0000F9211242F933F934F935F936F937F93D7
:1017C0008F939F93EF93FF93809136019091370110
:1017D00001969093370180933601E0913C01F0919E
:1017E0003D01309701F142815381648175818617F3
:1017F0009707C9F4CA012091840030918500421BEB
:10180000530B4130510529F480918400909185005B
:1018100001969093890080938800EFE6F0E0808144
:101820008260808305C0EFE6F0E080818D7F808359
:10183000FF91EF919F918F917F916F915F914F9168
:101840003F912F910F900FBE0F901F9018951F92F0
:101850000F920FB60F921124CF92DF92EF92FF9268
:101860002F933F934F935F936F937F938F939F93A8
:10187000AF93BF93EF93FF93C0903601D0903701A1
:101880002091840030918500B0990FC00D2C000C80
:10189000EE08FF08D601992788276901E12CF12C71
:1018A000C82AD92AEA2AFB2A15C02091840030913F
:1018B00085008FEFC81AD80A0D2C000CEE08FF081F
:1018C000D601992788276901E12CF12CC82AD92A49
:1018D000EA2AFB2AE0913C01F0913D01309709F49E
:1018E00042C082819381A481B5818C199D09AE0982
:1018F000BF09181619061A061B06ECF18CE391E0D5
:101900000E94BE0B6EE371E00E94380BE0913C0137
:10191000F0913D01309739F182819381A481B581A5
:101920008C199D09AE09BF09181619061A061B065F
:101930002CF721C09C014091840050918500841BAC
:10194000950B019731F420918400309185002F5F31
:101950003F4F3093890020938800EFE6F0E08081CC
:101960008260808305C0EFE6F0E080818D7F808318
:101970000E9465030CC082819381A481B58120916E
:101980003601309137012A173B0769F7D3CFFF9112
:10199000EF91BF91AF919F918F917F916F915F91E7
:1019A0004F913F912F91FF90EF90DF90CF900F904C
:1019B0000FBE0F901F9018953F924F925F926F92BB
:1019C0007F928F929F92AF92BF92CF92DF92EF92CF
:1019D000FF920F931F93CF93DF932B013C0149019B
:1019E0005A018FB78078382EF8948BE191E00E94ED
:1019F000BE0BEC011B870A87FD86EC86DF86CE8650
:101A0000332061F0E0911501F09116010280F3811D
:101A1000E02D82819381A481B58108C08091380135
:101A200090913901A0913A01B0913B01480E591EA5
:101A30006A1E7B1E4A825B826C827D8218141904A6
:101A40001A041B0444F00F2E88248A94982CA82C86
:101A5000FFE7BF2EF02D840C951CA61CB71C8E82B0
:101A60009F82A886B9868091360190913701409176
:101A7000840050918500B0990EC0092E000CAA0B6D
:101A8000BB0BDC019927882760E070E0842B952B45
:101A9000A62BB72B13C020918400309185000196AE
:101AA000092E000CAA0BBB0BDC0199278827A90182
:101AB00060E070E0842B952BA62BB72B481A590AAF
:101AC0006A0A7B0A1414150416041704ACF56CE3B7
:101AD00071E0CE010E947B0BE0913C01F0913D0151
:101AE000309721F182819381A481B58120913601C3
:101AF000309137012A173B07C9F49C0140918400BB
:101B000050918500841B950B019731F4209184003E
:101B1000309185002F5F3F4F3093890020938800DC
:101B2000EFE6F0E080818260808341C0EFE6F0E084
:101B300080818D7F80833BC06EE371E0CE010E9487
:101B4000380B3320B9F18091190190911A01009757
:101B500081F1E0911701F091180120913E0130913F
:101B60003F0102811381D90116964D915D916D91CE
:101B70007C911997D80116960D911D912D913C914C
:101B80001997401B510B620B730B9AF4DC012D91DA
:101B90003C91119730931A0120931901ED93FC9316
:101BA00090931801809317010E94450302C03320CF
:101BB00009F07894CE01DF91CF911F910F91FF90A2
:101BC000EF90DF90CF90BF90AF909F908F907F90DD
:101BD0006F905F904F903F900895CF92DF92EF9279
:101BE000FF920F931F93CF93DF93EC017B016A0168
:101BF0001FB71078F894A881B981109761F11496F5
:101C0000ED91FC911597309741F0A081B181149628
:101C1000ED91FC9115973097C1F720911501309106
:101C200016012A173B0721F0112309F43DC007C014
:101C3000112309F43CC078948FEF9FEF52C08A8142
:101C40009B810097D1F1FC011582148236C07894F3
:101C500080E090E046C08091150190911601998333
:101C60008883112329F08A819B81019709F0789458
:101C7000B601CE01F7010995F82E092F8FB7F89418
:101C8000198218828A819B818230910538F01B82EB
:101C90001A82FC01158214820E944503112351F01F
:101CA00078948F2D902F1DC08FEF9FEF1AC08FEF6C
:101CB0009FEF17C08F2D902F14C03B832A83F9010B
:101CC000D583C483CD010E944503E0911501F091B5
:101CD000160182819381892B09F4B9CFF983E883B6
:101CE000C2CFDF91CF911F910F91FF90EF90DF90C6
:101CF000CF90089500911501109116018EE391E0A7
:101D00000E94BE0BEC01D80113969C938E93129700
:101D100078944E855F856C857D858A859B850E943C
:101D2000ED0D8FB7F89480911B0190911C01998360
:101D30008883D0931C01C0931B01E0911701F0919F
:101D4000180100811181E8012A813B81A0913E01A7
:101D5000B0913F011097C1F02115310559F2169647
:101D60008D919D910D90BC91A02DE9014E815F81D7
:101D700068857985841B950BA60BB70B1816190679
:101D80001A061B060CF0B6CF10931801009317012A
:101D90008091190190911A0191838083F0931A0127
:101DA000E0931901A0911701B09118011496ED91DB
:101DB000FC911597309741F0A081B1811496ED9177
:101DC000FC9115973097C1F7CD010E94450392CF42
:101DD0004231B8F42FB7F89450E0440F551FFA0180
:101DE000E05CFE4F91838083FA01E852FE4F7183DD
:101DF000608341E050E0FC015383428322230CF4D2
:101E0000789408958C017B016A018FB7F8940E9441
:101E1000DA027894E114F10441F020E030E0A90105
:101E200060E070E0CB010E94DC0C8FB7F8940E9458
:101E30006503789481E083BF8895FDCF052E97FBDD
:101E40001EF400940E94350F57FD07D00E943D0FED
:101E500007FC03D04EF40C94350F50954095309507
:101E600021953F4F4F4F5F4F089590958095709506
:101E700061957F4F8F4F9F4F0895A1E21A2EAA1BA5
:101E8000BB1BFD010DC0AA1FBB1FEE1FFF1FA2172A
:101E9000B307E407F50720F0A21BB30BE40BF50B27
:101EA000661F771F881F991F1A9469F760957095B0
:101EB000809590959B01AC01BD01CF010895DC0197
:101EC0002D923D924D925D926D927D928D929D925A
:101ED000AD92BD92CD92DD92ED92FD920D931D9348
:101EE000CD93DD93FF91EF918DB78D938EB78D9349
:101EF0008FB78D93ED93FD93882799270994DC0183
:101F0000CB0181309105811D2D903D904D905D90CC
:101F10006D907D908D909D90AD90BD90CD90DD9019
:101F2000ED90FD900D911D91CD91DD91ED91FD9183
:101F30000D90F894FEBF0FBEEDBFED91FD91099499
:041F4000F894FFCF43
:101F44000000000006010000000032010000000053
:101F54000000000000FC01FC01640119025115108D
:101F640001111E111B500B411B411F1101511F5127
:021F74000B0060
:00000001FF
